:020000040800F2
:10000000F033002079020008B7160008B316000884
:10001000B5160008C50700087D180008000000009C
:10002000000000000000000000000000E1010008E6
:10003000C70700080000000025020008B9160008E4
:10004000930200089302000893020008930200083C
:100050009302000893020008C907000893020008F1
:10006000930200089302000893020008930200081C
:10007000930200089302000893020008930200080C
:1000800093020008930200089302000893020008FC
:10009000930200089302000893020008F507000885
:1000A00093020008930200089302000893020008DC
:1000B00093020008930200089302000893020008CC
:1000C00093020008930200089302000893020008BC
:1000D000930200085D1800089302000893020008CC
:1000E000DD0700089302000893020008930200084D
:1000F000930200089302000893020008930200088C
:10010000930200089302000893020008930200087B
:100110009302000893020008D5160008E1160008B3
:10012000930200089302000893020008930200085B
:1001300000F002F800F045F80AA090E8000C8244B4
:100140008344AAF10107DA4501D100F03AF8AFF291
:10015000090EBAE80F0013F0010F18BFFB1A43F0A5
:10016000010318477C3900009C390000103A24BF75
:1001700078C878C1FAD8520724BF30C830C144BF0C
:1001800004680C607047000000230024002500264E
:10019000103A28BF78C1FBD8520728BF30C148BFEA
:1001A0000B607047642900F0BF80782900F0F88068
:1001B000732900F08982002070471FB51FBD10B55C
:1001C00010BD00F0CDFA1146FFF7F7FF01F010FC6B
:1001D00000F0EBFA03B4FFF7F2FF03BC01F05FFBA2
:1001E000224B19680868B0E8F00F80F30988BFF364
:1001F0006F8F4FF0000080F311884EF00D0E7047A6
:100200000000000006480068006880F3088862B6B5
:1002100061B6BFF34F8FBFF36F8F00DF00BF00BF2A
:1002200008ED00E0EFF30980BFF36F8F0F4B1A6802
:1002300020E9F00F106008B54FF0500080F31188EE
:10024000BFF34F8FBFF36F8F02F096FD4FF00000AA
:1002500080F31188BDE8084019680868B0E8F00F1D
:1002600080F30988BFF36F8F704700BF4000002004
:10027000EFF30580704700000948804709480047B0
:10028000FEE7FEE7FEE7FEE7FEE7FEE7FEE7FEE746
:10029000FEE7FEE704480549054A064B70470000A3
:1002A000D116000831010008F02D0020F0330020A5
:1002B000F02F0020F02F0020704700000FB40449F9
:1002C00010B503AA029800F003FA10BC5DF814FB05
:1002D0001C00002070B50C460546012A05D0287880
:1002E000800600D5EA69002302E0012305E05B1CDB
:1002F000934202D2E05C0028F9D1A869E618C01A3E
:10030000A861286A184428622846AFF3008004E0F8
:10031000D5E9012114F8010B9047B442F8D32846DF
:10032000AFF3008070BD00002DE9F04106460024C7
:1003300010687529314616A510D0AFF3008000284B
:1003400002DA404213A507E031688A0701D512A5F9
:1003500002E0490704D511A5012401E0AFF30080B4
:1003600000210A2206F1240709E0B0FBF2FCB0FBF1
:10037000F2F302FB1C00303078541846491C002868
:10038000F3D123462A463046BDE8F04100F018B9C3
:10039000000000002D0000002B00000020000000E5
:1003A00070B504460D4621461068AFF300802188E1
:1003B000090502D50F4A7A4402E00E4A7A440E3209
:1003C000002104F1240305E000F00F060009965D0A
:1003D0005E54491C0028F7D120780023000704D57B
:1003E000702D02D009B1022311322046BDE87040C1
:1003F00000F0E6B8EA3600002DE9F0410F46044669
:100400000020DFF88480F84420622046E1688847B5
:1004100090B3252806D0D4E901219047206A401CDA
:100420002062F2E700252046E1688847202806463A
:1004300008DB312E06D208EB060010F8200C08B1BC
:100440000543F0E7A80701D525F00405A6B1A6F1FC
:100450004100192802D8203645F400653A46314655
:1004600020462560FFF79EFE48B1012805D0FF1DFC
:1004700027F007070837C8E703E03F1DC5E7304608
:10048000C9E7206ABDE8F081C2360000032A40F2C5
:10049000308010F0030C00F0158011F8013BBCF126
:1004A000020F624498BF11F801CB00F8013B38BF3E
:1004B00011F8013BA2F1040298BF00F801CB38BF4C
:1004C00000F8013B11F0030300F01481083AC0F07A
:1004D000088051F8043B083A51F804CBA0E8081012
:1004E000F5E7121D5CBF51F8043B40F8043BAFF345
:1004F0000080D20724BF11F8013B11F801CB48BF9F
:1005000011F8012B24BF00F8013B00F801CB48BFD4
:1005100000F8012B704702F0FF0343EA032242EA8E
:10052000024200F002B84FF000020429C0F012802D
:1005300010F0030C00F01B80CCF1040CBCF1020F96
:1005400018BF00F8012BA8BF20F8022BA1EB0C016B
:1005500000F00DB85FEAC17C24BF00F8012B00F861
:10056000012B48BF00F8012B70474FF0000200B587
:10057000134694469646203922BFA0E80C50A0E8C6
:100580000C50B1F12001BFF4F7AF090728BFA0E874
:100590000C5048BF0CC05DF804EB890028BF40F840
:1005A000042B08BF704748BF20F8022B11F0804F82
:1005B00018BF00F8012B70477047704770477047AD
:1005C0002DE9F0470D4699469246044600F124086D
:1005D0000168880604D5E06921F01001216000E07F
:1005E0000120A84201DD471B00E00027A1697A191C
:1005F00002EB0900081AA0612078C00602D4204648
:10060000AFF30080002608E0D4E901211AF80600C3
:100610009047206A401C761C20624E45F4DB20780F
:10062000C0060AD52046AFF3008006E0D4E90121D8
:1006300030209047206A401C2062381EA7F1010735
:10064000F4DC07E0D4E9012118F805009047206A9E
:10065000401C2062281EA5F10105F3DC2046AFF303
:1006600000802078000602D50220BDE8F087012036
:10067000FBE7000001694A1C02610878704700B579
:100680008FB0CDE901310021059105497944CDE9CB
:10069000031011466846FFF7AFFE0FB000BD000023
:1006A000E5FFFFFF10B5436913B1AFF3008001E030
:1006B000FFF710FE012010BD127800F124010A702E
:1006C00000224A700122EDE711684FF0FF32E9E79E
:1006D000074B70B50D467B44FFF7D1FF0446284613
:1006E00000F03AF810B14FF0FF3070BD204670BDF9
:1006F0001712000010B5203AC0F00B80B1E8185076
:10070000203AA0E81850B1E81850A0E81850BFF4FB
:10071000F5AF5FEA027C24BFB1E81850A0E818509A
:1007200044BF18C918C0BDE810405FEA827C24BFEE
:1007300051F8043B40F8043B08BF7047D20728BF7C
:1007400031F8023B48BF11F8012B28BF20F8023BCB
:1007500048BF00F8012B7047007B00F08000704715
:10076000754600F02BF8AE4605006946534620F06A
:100770000700854618B020B5FFF78CFDBDE8204086
:100780004FF000064FF000074FF000084FF0000B4D
:1007900021F00701AC46ACE8C009ACE8C009ACE800
:1007A000C009ACE8C0098D46704710B50446AFF3E8
:1007B00000802046BDE81040FFF70CBD00487047A0
:1007C0008C2D0020FEE7704710B5012000F0DEF808
:1007D00001490120086010BD1404014010B54FF418
:1007E0000044204600F0D2F80148046010BD00002B
:1007F0001404014010B5202000F0C8F80149202061
:10080000086010BD140401402DE9F05F90F821103C
:100810000024022903D004218163012485E00168BA
:100820000A6822F00E020A6001680A6822F00102DA
:100830000A603F4E3E4FB215DFF8F4C0DFF8F0908B
:10084000DFF8ECA0DFF8E8B0DFF8E4E00168783F1B
:1008500013011502ACF1640CA9F15009AAF13C0A8C
:10086000ABF1280BAEF1140E4FF48018B14227D92A
:10087000B9420ED0614512D049451DD0514518D01E
:10088000594518D0714501D1424615E0294EB14273
:1008900001D1012210E0274E1436B14201D11022BD
:1008A0000AE0244E2836B14206D0224A3C32914218
:1008B00001D11A4600E02A461E49091F0A602BE0B2
:1008C000B94213D0614517D0494522D051451DD0BA
:1008D00059451DD0714501D142461AE0B14202D1BD
:1008E0004FF0807215E0134EB14201D1012210E0A9
:1008F000104E1436B14201D110220AE00D4E2836B6
:10090000B14206D00B4A3C32914201D11A4600E076
:100910002A46074980394A60012180F821100021C8
:1009200080F82010416B01B188472046BDE8F09F58
:10093000800002400804024070B50446142000F014
:10094000AFFF0F4D202C0ED0B4F5004F17D1691416
:100950000C4800F023F9002811D12846BDE870406A
:10096000042100F020B9084C0121204600F016F9BE
:10097000002804D1A115204600F015F9EDE770BD5F
:10098000001401400010014000080140044910B566
:100990000A68024202D00860FFF7CEFF10BD0000D7
:1009A000140401402DE9F84FDFF8C891002409F143
:1009B000040A0AF1040B23460F270BF1040ED1E0C1
:1009C0000125A54006EA0502AA4276D1DFF8A8C1B2
:1009D0004E68A6EB0C0866452BD00DDC032E34D0F8
:1009E00005DC36B3012E19D0022E2FD11BE0112EBB
:1009F00016D0122E2AD119E0B8F5881F19D006DCBE
:100A0000B8F5803F15D0B8F5801F1FD111E0B8F5BB
:100A1000001F0ED0B8F5041F18D10AE0CB6815E00E
:100A2000CB681B1D12E0CB6808330FE0CB680C339A
:100A30000CE08B682BB1012B4FF0080303D045610C
:100A400004E0042302E0056100E00023FF2A01D84E
:100A5000064601E000F104064FEA840501D9A5F13C
:100A60002005D6F8008007FA05FC28EA0C0803FAEE
:100A700005F548EA0508C6F800804D68ED0070D518
:100A80003E4DAE6946F00106AE61AD6924F0030645
:100A900005F0010500953A4D06EB050CDCF8085011
:100AA000A607360F07FA06F825EA0805DFF8D4800E
:100AB000404503D14FF0000825E052E0DFF8C88040
:100AC000404502D14FF001081DE0DFF8C0804045ED
:100AD00002D14FF0020816E0DFF8B480404502D1A1
:100AE0004FF003080FE0DFF8AC80404502D14FF033
:100AF000040808E0DFF8A080404502D14FF0050867
:100B000001E04FF0060808FA06F848EA0508CCF8B4
:100B100008804D68D9F80060ED034D4601D51643B5
:100B200000E096432E604D68DAF80060AD0355464C
:100B300001D5164300E096432E604D68DBF8006057
:100B4000ED025D4601D5164300E096432E604D68E8
:100B5000DEF80060AD02754601D5164300E096430D
:100B60002E60641C0A681646E2407FF429AFBDE897
:100B7000F88F000000040140000011100010024036
:100B80000000014000080140000C0140001001403D
:100B90000014014000180140001C0140806808401A
:100BA00000D001207047C26821EA02030A4043EAEC
:100BB00002410161704700000148806870470000F1
:100BC000200000200248816802781144816070474B
:100BD00020000020074810B5016841F010010160B5
:100BE000052000F057F80F2000F006F800F024F878
:100BF000002010BD0020024070B50D4D04464FF49A
:100C00007A712878B1FBF0F00A490968B1FBF0F07D
:100C100000F0CEFA48B9102C07D200222146501E0F
:100C200000F018F800206C6070BD012070BD00005D
:100C300020000020000000207047002809DB00F0A1
:100C40001F02012191404009800000F1E020C0F81E
:100C500000117047F0B40E4B1B680C46C3F302231F
:100C6000C3F10705042D00D90425191D072901D258
:100C7000002300E0DB1E012606FA05F1491E214093
:100C800099409E40761E16403143F0BC00F0F7BDFF
:100C90000CED00E0064900F0070208684FF6FF037C
:100CA000184040EA0220034A1043086070470000E1
:100CB0000CED00E00000FA052DE9F0470F460500B5
:100CC00061D0434E306800F00700B84209D2306866
:100CD00020F0070038433060306800F00700B84269
:100CE00051D128683B4C810712D5400703D5606875
:100CF00040F4E06060602878000703D5606840F445
:100D0000605060606068A96820F0F000084360608F
:100D10002878C00728D06868012810D021680228E8
:100D200010D0890700292EDA616821F00301014300
:100D30006160FFF741FF804641F288390DE021688C
:100D40008903EFE78901EDE7FFF736FFA0EB080124
:100D5000494502D90320BDE8F0876068696800F062
:100D60000C00B0EB810FEFD1306800F00700B84203
:100D70000BD9306820F0070038433060306800F04D
:100D80000700B84201D00120E5E72878400705D5E3
:100D90006068E96820F4E060084360602878000734
:100DA00006D56068296920F4605040EAC10060609F
:100DB00000F038F86168084AC1F30311515CC8407B
:100DC0000649086006480068FFF716FF0020C2E7E2
:100DD00000200240001002408C3A00080000002071
:100DE000240000200448054900684968044AC1F30A
:100DF0000221515CC84070470000002000100240F2
:100E00009C3A00080448054900684968044AC1F34F
:100E1000C221515CC8407047000000200010024011
:100E20009C3A000812A185B00FC98DE80F0014A0EC
:100E3000144A006804905168134801F00C03042B15
:100E400010D0082B0ED1C1F38343C9031DF8030052
:100E50000AD5516804AAC1F34041515C0A4A504383
:100E6000B0FBF1F005B0704708494843FAE70000CD
:100E700002030405060708090A0B0C0D0E0F1010DB
:100E8000010200000010024000127A0000093D003B
:100E90002DE9F84F040070D02078C04DC00749D02C
:100EA0006868C0F38100012807D06868C0F381003A
:100EB000022809D16868C00306D52868800339D59F
:100EC00060680028E7D035E06068B0F5803F0BD05F
:100ED00010B1B0F5A02F11D0286820F48030286020
:100EE000286820F4802002E0286840F480302860E0
:100EF000606890B1FFF760FE06460AE0286840F49B
:100F000080202860F0E700BFFFF756FE801B6428B2
:100F100073D828688003F7D50CE0FFF74DFE06462E
:100F200005E000BFFFF748FE801B6428F0D8286862
:100F30008003F7D420789A4E80074FF001094FF0D4
:100F4000000839D5686810F00C0F07D06868C0F346
:100F50008100022809D16868C00306D42868800788
:100F600014D52069012808D110E02069B0B1C6F875
:100F70000090FFF721FE074605E00AE1FFF71CFE9F
:100F8000C01B0228C4D828688007F7D52868616983
:100F900020F0F80040EAC10028600DE0C6F80080AB
:100FA000FFF70AFE074604E0FFF706FEC01B022813
:100FB00023D828688007F7D4207800072CD57948F3
:100FC000A169D9B1C0F80090FFF7F6FD074604E02B
:100FD000FFF7F2FDC01B02280FD8686A8007F7D51B
:100FE00071484FF4FA510068B0FBF1F0009000BF77
:100FF0000098411E0091FAD20EE080E0C0F8008017
:10100000FFF7DAFD074604E0FFF7D6FDC01B022814
:1010100075D8686A8007F7D42078400760D5E869FA
:101020000027C00008D4E86940F08050E861E86912
:10103000012700F0805000905C480168C90513D476
:101040000168834641F480710160FFF7B5FD824677
:1010500006E000BFFFF7B0FDA0EB0A0064284ED801
:10106000DBF80000C005F5D5E06801280AD008B11A
:10107000052813D0286A20F001002862286A20F091
:10108000040002E0286A40F001002862E06841F2B2
:10109000883B98B1FFF790FD82460BE0286A40F04C
:1010A00004002862EEE700BFFFF786FDA0EB0A010F
:1010B00059455AD8286A8007F6D50CE0FFF77CFD21
:1010C000824605E0FFF778FDA0EB0A0159454CD8B0
:1010D000286A8007F6D41FB1E86920F08050E861E3
:1010E000E06988B36968C1F38101022944D002280C
:1010F000C6F8608004D0FFF75FFD044638E034E0B6
:10110000FFF75AFD074604E0FFF756FDC01B022813
:101110002BD828688001F7D4206AB0F5803F05D12C
:101120006868A16820F4003008436860D4E90801C9
:101130000843696821F4741108436860C6F8609038
:10114000FFF73AFD044606E025E000BFFFF734FD57
:10115000001B022809D828688001F7D51BE000BFD2
:10116000FFF72AFD001B022802D90320BDE8F88FF3
:1011700028688001F4D40EE00128F7D06868226A5C
:1011800000F48031914204D1616A00F47010884209
:1011900001D00120EAE70020E8E70000001002404B
:1011A00000004242800442420000002000700040E3
:1011B00010B5401EB0F1807F01D3012010BD4FF06B
:1011C000E02460610F21601700F059FB0020A0614E
:1011D00007202061002010BD70477047704770B530
:1011E0000446006801694FF00005C943890715D41A
:1011F000C168C943890711D4E91E01610120207724
:10120000206880698007204602D0FFF7E7FF04E0EE
:1012100000F098F8204600F096F8257720680169DC
:10122000C943490717D4C168C943490713D46FF0AC
:1012300004010161022020772068806910F4407F5A
:10124000204602D0FFF7CAFF04E000F07BF82046FA
:1012500000F079F8257720680169C943090716D499
:10126000C168C943090712D46FF008010161042065
:1012700020772068C0698007204602D0FFF7AEFFC4
:1012800004E000F05FF8204600F05DF82577206864
:101290000169C943C90617D4C168C943C90613D433
:1012A0006FF010010161082020772068C06910F4F8
:1012B000407F204602D0FFF791FF04E000F042F8A3
:1012C000204600F040F8257720680169C943C90726
:1012D00008D1C168C943C90704D1891E01612046EC
:1012E00000F032F820680169C943090609D4C168D1
:1012F000C943090605D46FF0800101612046FFF75C
:101300006BFF20680169C943490609D4C168C94314
:10131000490605D46FF040010161204600F042F813
:1013200020680169C94389060BD4C168C94389068D
:1013300007D46FF0200101612046BDE87040FFF73F
:101340004CBF70BD7047704700680649884201D1A4
:1013500005A003E00B49884202D10BA0FEF7AEBF07
:10136000704700000010004054494D36D3C5CFC827
:10137000BCB6CEAA36A3ACD5FDD4DAD4CBD0D0A39C
:10138000A10D0A000014004054494D37D3C5CFC801
:10139000BCB6CEAA34A3ACD5FDD4DAD4CBD0D0A37E
:1013A000A10D0A007047704770B5026804461068C6
:1013B000D168536910F00F0F52D003F0010501F40A
:1013C00090762E435FD0C20705D0CA0503D5E26BE5
:1013D00042F00102E263420705D5DA0703D0E26B6F
:1013E00042F00202E263820705D5DA0703D0E26B1E
:1013F00042F00402E263020707D501F020022A430B
:1014000003D0E26B42F00802E263E26B002A33D0C1
:10141000800604D5880602D5204600F07DF92068B4
:101420004069E16BC0F38010090700D428B320465F
:1014300000F064F92068416949061AD5416921F034
:1014400040014161606BA0B12D494163606BFFF7C2
:10145000DBF9002810D0606B416BBDE87040084795
:10146000830610D58B060ED52046BDE8704000F0EF
:1014700053B92046FFF797FF70BD2046FFF793FF53
:101480000020E06370BD03062BD50B0629D594F828
:1014900039002128F6D1A068B0F5805F01D120691C
:1014A000B0B1206A411C2162216800784860E08C5C
:1014B000401E0004000CE084E4D12068C16821F0E3
:1014C0008001C1602068C16841F04001C16070BD09
:1014D000206A0088C0F308005060206A801C2062E7
:1014E000E5E74006F3D54806F1D5D168204621F05E
:1014F0004001D160202184F8391000F0D9F870BD86
:10150000ED16000870B5040004D094F839000025E9
:1015100010B106E0012070BD84F83850204600F07C
:1015200023F8242084F839002068C16821F4005190
:10153000C160204600F036F92068016921F490412D
:1015400001612068416921F02A0141612068C16878
:1015500041F40051C160E563202084F8390084F82B
:101560003A00002070BD000010B500681E4986B02A
:10157000884236D11D48816941F004018161816949
:1015800001F004010491816941F0040181618169E4
:1015900001F004010491816941F480418161806915
:1015A000134C00F4804004904FF40070009002202F
:1015B0000190012002900320039069462046FFF726
:1015C000F1F9201500900020019069462046FFF7B0
:1015D000E9F92520FFF731FB032211462520FFF70B
:1015E00039FB06B010BD0000003801400010024079
:1015F0000008014090F83A30202B22D1F9B1F2B125
:1016000090F83830012B1CD081628285C285002180
:10161000C163222280F83A2080F838100168CA6835
:1016200042F48072CA6001684A6942F001024A616C
:101630000068C16841F02001C160002070470120AE
:10164000704702207047000030B400681549884296
:1016500025D1154841880A0416D402464C04127854
:101660004FF0000304D50A2A0DD141F4004114E0E3
:101670000D2A10D0C1F30D040C4D491C89B22A5516
:101680004180C72900D943800848012230BC06495F
:10169000C830FFF7AFBF41F480414180F4E730BC70
:1016A000704700000038014018000020A80000200A
:1016B0007047FEE7FEE7704710B5FFF783FA01F0C9
:1016C00035FF012803D0BDE8104001F021BD10BD59
:1016D000704700000148FFF782BD0000B001002004
:1016E0000148FFF77CBD0000F801002010B5406AFA
:1016F0000021C185C184FFF756FE10BD0168CA688C
:1017000022F49072CA6001684A6922F001024A61BB
:10171000202180F83A10704710B590F83A1022292D
:1017200001D0022010BD82684FF480539A4201D14B
:10173000016921B1816A9A421BD04AB10AE002686C
:10174000816A5268C2F308020A80816A891C08E033
:10175000026972B10268526802F07F020A70816AFF
:10176000491C8162C18D491E0904090CC18503D041
:1017700016E002685268F1E70168CA6822F02002A8
:10178000CA600168CA6822F48072CA6001684A6946
:1017900022F001024A61202180F83A10FFF754FF3D
:1017A000002010BD70B5044600680169E26821F4AC
:1017B0004051114301612169A068084361690843F0
:1017C0002168CA6841F20C639A430243CA602068E8
:1017D0004169A26921F44071114341611E492068A9
:1017E000884202D1FFF70EFB01E0FFF7FBFA00EBA6
:1017F000C00101EB0012606864218000B2FBF0F3CD
:10180000B3FBF1F36FF018067343B2FBF0F5B2FBD4
:10181000F0F605EB8305322303EB0515B5FBF1F577
:10182000B6FBF1F605F0F00505EB0615B2FBF0F698
:10183000B2FBF0F0B0FBF1F06FF01802504306EB92
:10184000800003EB0010B0FBF1F0216800F00F0006
:101850002844886070BD00000038014010B505487C
:10186000FFF7A2FD012204490248FFF7C3FE00284A
:10187000F8D110BD7001002018000020FEE7090714
:10188000090E002804DB00F1E02080F80014704706
:1018900000F00F0000F1E02080F8141D7047704741
:1018A00070B5054600244FF47A7603E0304600F028
:1018B00005F8641CAC42F9D370BD000070B54FF060
:1018C000E024002265690949A36909684843A169C0
:1018D0009942FCD002D2A3EB010302E0A5EB010682
:1018E00033441A440B468242F1D370BD14000020E9
:1018F00004490A685206FCD5024AC1B2121D1160A1
:1019000070470000003801401CB507490120CDE9AF
:1019100000010023802205A1074801F0D9FDBDE8A0
:101920001C4001F0D1B90000040000207374617202
:10193000745F7461736B00000D24000870B5144867
:1019400086B0816941F010018161816901F0100167
:101950000491816941F004018161806901240025BD
:1019600000F00400CDE9004503260294CDE90360B0
:1019700069460848FFF716F86003CDE90005CDE990
:10198000024669460448FFF70DF806B070BD000036
:101990000010024000080140001001402DE9F04114
:1019A000114D002401212846FFF7F8F86E140F4F5F
:1019B000012805D031463846FFF7F0F8012810D14C
:1019C0000A20FFF76DFF01212846FFF7E7F80128FD
:1019D00000D1012431463846FFF7E0F8012800D154
:1019E00002242046BDE8F0810008014000100140BB
:1019F00010B5FFF7EFF84FF4E01000F047FD4FF49B
:101A0000E13000F0A7FDFFF799FFFFF77DFF002011
:101A100010BD00002DE9F041204C0F460546E66858
:101A20002168002081F859002068001D00F0AEFDFB
:101A300038B9206890F82C10012088402169814332
:101A40002161681C15D1A7B11549226848689060CA
:101A500023688268DA6022688368121D5A602268EF
:101A6000121D8260206841610868401C0860BDE862
:101A7000F08120683544B5424560216805D2E06BAD
:101A8000BDE8F041091D00F0B5BDA06B091D00F0D7
:101A9000B1FDA06A8542EAD2A562E8E740000020D5
:101AA000380500202DE9F041054600F0C7FD354C12
:101AB000A068401CA0602068334F10B1606930B34B
:101AC0002BE02560A068012827D1002606EB8600C0
:101AD00007EB800000F080FD761C202EF6D32B480B
:101AE00000F07AFD2948143000F076FD27482830B0
:101AF00000F072FD25483C3000F06EFD2348503068
:101B000000F06AFD2148A0631430E06305E020681E
:101B1000E96AC06A884200D82560606A401C606239
:101B20006864E96A0120226988401043206101EB62
:101B3000810007EB80004068A8608168E9608268E6
:101B4000291D51608160E86A00EB800007EB80018D
:101B5000696157F82010491C47F8201000F0B0FDCB
:101B6000606900280CD02068E96AC06A884207D200
:101B700007494FF080500860BFF34F8FBFF36F8F5E
:101B8000BDE8F0814000002068020020E804002049
:101B900004ED00E010B500F051FD0E4C2068A0B936
:101BA0000D4800F019FD0C48143000F015FD0A48EE
:101BB000E0601430206100221021052001F0BEFAFF
:101BC000206010B105A100F01DFEBDE8104000F03E
:101BD00077BD00002C00002040020020546D72519F
:101BE0000000000030B4026C0B46002A0BD0C16824
:101BF0001144C1608468A14201D30168C16030BC56
:101C00001846FEF743BC30BC70472DE9F041856BA8
:101C1000174604460026026C82B1C7B1E068FEF7A1
:101C200035FCE168206C091AE1602268914202D219
:101C3000A168081AE060022F16D017E02068A8B942
:101C4000A06801F03BFD06460020A0600EE0606841
:101C5000FEF71CFC216C606808446060A168884243
:101C600004D32068606001E005B16D1E6D1CA563A2
:101C70003046BDE8F08110B50446006B00F058FD19
:101C80002046BDE8104000F053BD00000E484FF460
:101C90002051420706D0C01D0B4920F00700411A11
:101CA000C1F52051094A00230144C2E90003083963
:101CB000143A21F0070111604B600B600B1AC0E968
:101CC00000139360536070478C050020940000203F
:101CD000144E154CA6F52F774FF08058DFF84C9036
:101CE00012E000BF00F0AAFCF068C568281D00F0F3
:101CF0004DFCA068401EA0606068401E606000F05F
:101D0000DFFC2846FFF7B7FF60680028EAD1386893
:101D10000128F9D9C9F80080BFF34F8FBFF36F8F47
:101D2000F2E70000240500204000002004ED00E060
:101D30002DE9F047DDE909840E46174682469100F9
:101D40009946089DA522206BFEF7E5FB6FF0030185
:101D5000206B01EB8701084420F00707780705D0C6
:101D600040F25D321AA123A0FEF7A8FA66B1002066
:101D70002218315C82F83410315C11B1401C1028FB
:101D8000F6D3002084F84300202D06D340F292328F
:101D90000FA118A0FEF792FA1F25E562201DE56449
:101DA00000F025FC04F1180000F021FC2461C5F1CD
:101DB00020006462A0614A465146384600F014FB98
:101DC0002060B8F1000F01D0C8F80040BDE8F087EE
:101DD0002E2E5C2E2E5C4D6964646C657761726595
:101DE000735C4672656552544F535C7461736B73D8
:101DF0002E6300004572726F723A2025732C2025E5
:101E0000640D0A0030B5114900E011460A688242AB
:101E1000FBD34B685C18844203D140681844486087
:101E2000084643681C18944209D1084C143C2468A5
:101E3000A24209D052681A4442600A6812680260DD
:101E4000814200D0086030BD0460F9E794000020B2
:101E500070B5002441600B4D0061914206D8D11A43
:101E60008269914206D2011D286907E09A4203D295
:101E7000994201D3012403E0011DE86800F0BAFB98
:101E8000204670BD2C00002010B5044600F0D6FBA3
:101E9000A06B28B15FF0000400F012FC204610BDDA
:101EA0000124F9E7F1B500980026846C2CB940F6BE
:101EB000E3321BA123A0FEF701FAA06BE16B88427D
:101EC00005D340F6E43216A11EA0FEF7F7F9A06B89
:101ED000E16B884222D294F945500022694620469F
:101EE000FFF793FE0646681C06D000F063FB8542B0
:101EF00014D27F2D09D00EE0606A78B104F124007D
:101F000001F04EFC50B1012608E040F6044204A165
:101F10000CA0FEF7D3F96D1C84F845503046F8BD8F
:101F20002E2E5C2E2E5C4D6964646C657761726543
:101F3000735C4672656552544F535C717565756587
:101F40002E6300004572726F723A2025732C202593
:101F5000640D0A0070B506460D480D46C068C0689D
:101F6000C468201D00F012FB94F82800410705D535
:101F70002A463146204600F0D7F803E000F0FE0084
:101F800084F828002046216ABDE870400847000018
:101F90002C00002070B586B03A4E6AE00098002808
:101FA00006DADDE90201019A90470098002860DB1B
:101FB000029C606910B1201D00F0E8FA04A800F04E
:101FC000D5F8054600980A2853D2DFE800F05205FC
:101FD00005292F460505292F94F828002A4640F0A8
:101FE000010084F828000198A169034601442046B5
:101FF000FFF72EFF00283CD094F82800410707D5B2
:102000000198A1692A460144204600F08DF803E0BA
:1020100000F0FE0084F82800216A2046884728E066
:1020200014F8280F00F0FE00207022E094F8280039
:1020300040F0010084F828000198A06128B940F21E
:102040005E3211A119A0FEF739F9A0692B4641199A
:102050001A462046FFF7FCFE0BE094F828008107A3
:1020600003D4204600F064FB03E000F0FE0084F897
:10207000280000226946306801F01EF900288DD141
:1020800006B070BD2C0000202E2E5C2E2E5C4D69FB
:1020900064646C6577617265735C46726565525401
:1020A0004F535C74696D6572732E63004572726F75
:1020B000723A2025732C2025640D0A00F8B50D46D0
:1020C000064600F051FE684600F050F804460098BD
:1020D00010B101F0EBFBF8BD1148ADB10169096821
:1020E000D9B10025311B2A46006800F0CDFB01F074
:1020F000DDFB0028EFD10B494FF080500860BFF3A3
:102100004F8FBFF36F8FF8BDA642EBD801F0CEFB27
:1021100021463046FFF71EFFF8BD0125E2E700002B
:102120002C00002004ED00E070B516460C46054674
:1021300004E0A869296A044428468847A869234618
:10214000011932462846FFF783FE0028F1D170BD01
:102150000548816B096821B1816BC9680968816292
:1021600070474FF0FF31FAE7400000202DE9F041C1
:10217000064601F0E9F90E4C0546A068854214D2E6
:102180004FF0FF3704E0C06839460068FFF7E2FE11
:10219000E06801680029F6D12169C4E90310012033
:1021A00030602846A560BDE8F0810020F8E7000017
:1021B0002C00002008484068401C04D0D12207A110
:1021C00014A0FEF77BF8502080F31188BFF34F8FE7
:1021D000BFF36F8FFEE700009C0000202E2E5C2EC8
:1021E0002E5C4D6964646C6577617265735C4672E0
:1021F000656552544F535C706F727461626C655CBC
:10220000525644535C41524D5F434D335C706F7284
:10221000742E63004572726F723A2025732C20254C
:10222000640D0A000346002012B1994302D07047A2
:102230000B42FCD001207047074CE068016841B1B7
:10224000C0680021D0F80000FFF738FFFFF7A2FEBA
:10225000F3E701210020F7E72C0000202DE9F041F1
:10226000044600F0EBF994F9455004F124060FE020
:10227000A06C18B12046FFF715FE04E0606A48B173
:10228000304601F08DFA08B100F0D8FB6D1E6DB23A
:10229000002DEDDC4FF0FF3684F8456000F010FAB9
:1022A00000F0CCF994F9445004F1100709E02069DA
:1022B00048B1384601F074FA08B100F0BFFB6D1E5A
:1022C0006DB2002DF3DC84F84460BDE8F04100F00D
:1022D000F7B900002DE9F0410446002600F044FD66
:1022E0002E4F386808B9FFF7D1FC002C49D004F014
:1022F0000700C0F11000C1438C4242D82518002DC0
:102300003FDD786885423CD82448143001460C688B
:1023100001E020460C466168A94202D221680029EA
:10232000F7D13968B8468C422BD006682168016025
:1023300060680836401B10280ED96719780704D04A
:10234000DC2217A124A0FDF7B9FF6068401B78606C
:1023500038466560FFF756FD6268D8F804004146CC
:10236000801AC8F80400D8F80830984200D2886073
:1023700042F00040606000202060C868401CC8F83F
:102380000C0001F093FA700705D04FF48E7204A18F
:1023900011A0FDF793FF3046BDE8F08180000020DA
:1023A0002E2E5C2E2E5C4D6964646C6577617265BF
:1023B000735C4672656552544F535C706F72746102
:1023C000626C655C4D656D4D616E675C68656170E2
:1023D0005F342E63000000004572726F723A202550
:1023E000732C2025640D0A0010B5031F4FF0807474
:1023F0001C601B1F21F001011960191F024B0B60AB
:10240000143940380A6010BDB52100081CB500F031
:1024100015F900F0F7FC1149C86010B110A0FDF7E4
:102420004DFF0E490220091DCDE900010023802245
:1024300010A1124801F04CF8084903200831CDE9F9
:102440000001002380220EA10F4801F041F8002076
:1024500000F07AFABDE81C4000F032B90400002018
:10246000CAC2BCFED7E9B4B4BDA8B3C9B9A6A3A17A
:102470000A0000007461736B31000000E52400085D
:102480007461736B320000001125000870B590B0C4
:10249000064628216846FEF768F814210AA8FEF7C8
:1024A00064F80120009000040024CDE90104022515
:1024B0000996CDE907506846FEF7EAFC00B1FEE751
:1024C0000F20CDE90A054FF48060CDE90C400221D0
:1024D0000AA80E94FEF7F0FB002800D0FEE710B02B
:1024E00070BD0000094C00BFFFF758FA012802D068
:1024F000022802D005E0012100E00221E06800F09E
:102500008FFC962000F0E2F9EEE7000004000020C6
:1025100008B5074D4FF0FF34012300941A460321FC
:10252000E86800F0DDFC014602A0FDF7C7FEF3E716
:1025300004000020B5C8B4FDB5BDB5C4CAC2BCFE18
:10254000B1EAD6BECEBBD6B5CEAAA3BA2523780DA6
:102550000A0000000B4910B5094AC1E9002000201B
:102560008860C860086188610C2048610846FEF7F1
:10257000C9FFBDE81040012203490248FFF73AB8FD
:10258000003801407001002018000020D0E901321D
:1025900001699A60D0E901235A604A68824201D1F8
:1025A00082684A60002202610868401E086008686C
:1025B000704700000148806870470000400000201C
:1025C000044908680A688069D26A0968C2F1200271
:1025D0008A6170474000002000F108014FF0FF328F
:1025E000C0E90112C1600161002101607047002152
:1025F0000161704730B50B685A1C02D000F1080227
:1026000002E0026904E02246546825689D42FAD936
:1026100053684B6099608A60516008610168491C89
:10262000016030BD42684A6093688B60936859606E
:10263000916008610168491C01607047502080F377
:102640001188BFF34F8FBFF36F8F09494868401C53
:10265000486001280AD10748006810F0FF0F05D034
:102660004FF4BB7204A112A0FDF728BE7047000012
:102670009C00002004ED00E02E2E5C2E2E5C4D69A7
:1026800064646C6577617265735C4672656552540B
:102690004F535C706F727461626C655C5256445348
:1026A0005C41524D5F434D335C706F72742E63001A
:1026B0004572726F723A2025732C2025640D0A0032
:1026C00010B5084C606828B940F27D1206A114A02C
:1026D000FDF7F4FD6068401E606001D180F3118851
:1026E00010BD00009C0000202E2E5C2E2E5C4D693B
:1026F00064646C6577617265735C4672656552549B
:102700004F535C706F727461626C655C52564453D7
:102710005C41524D5F434D335C706F72742E6300A9
:102720004572726F723A2025732C2025640D0A00C1
:1027300070B500282CD0A0F108046068002805DBE3
:1027400040F22F1213A121A0FDF7B8FD206828B197
:102750004FF498720FA11DA0FDF7B0FD606800282E
:1027600016DA2168002913D120F00040606000F0E3
:10277000FBFA1A4D60686968084468602046FFF7F4
:1027800041FB2869401C2861BDE8704001F08EB80B
:1027900070BD00002E2E5C2E2E5C4D6964646C654D
:1027A00077617265735C4672656552544F535C7015
:1027B0006F727461626C655C4D656D4D616E675CD6
:1027C000686561705F342E63000000004572726FAF
:1027D000723A2025732C2025640D0A008000002009
:1027E0004FF0E02000210161816105494FF4FA5268
:1027F0000968B1FBF2F1491E416103210161704793
:102800000000002070B50E4605004FF0000405D111
:1028100040F6D8220EA117A0FDF750FD002E15D0CE
:102820001848002200EBC2014B68AB4202D100EB1A
:10283000C20407E01CB950F8323003B90C46521CF0
:10284000082AEFD3002C01D0C4E9006570BD000058
:102850002E2E5C2E2E5C4D6964646C65776172650A
:10286000735C4672656552544F535C71756575654E
:102870002E6300004572726F723A2025732C20255A
:10288000640D0A004C05002070B515460E4604463E
:10289000FFF7D4FE94F944100020491C01D184F8BC
:1028A000440094F94510491C01D184F84500FFF714
:1028B00007FFA06B28B92A46314604F1240000F036
:1028C000F5F82046BDE87040FFF7C8BC10B504001D
:1028D00012D00E48406B28B140F21D520CA115A039
:1028E000FDF7ECFC00F040FA00212046FFF792F8DB
:1028F00000F0DCFF002807D112494FF0805008603B
:10290000BFF34F8FBFF36F8F10BD0000400000205A
:102910002E2E5C2E2E5C4D6964646C657761726549
:10292000735C4672656552544F535C7461736B738C
:102930002E6300004572726F723A2025732C202599
:10294000640D0A0004ED00E070B50546FFF776FE61
:10295000254C05B92568281DFFF718FE58B9E86A07
:10296000224A00EB800152F8211021B90121814057
:10297000206988432061A86A18B105F11800FFF7A3
:1029800005FE606A401C60622068854207D1291DEF
:102990001748FFF747FE6068401C606004E0A068CD
:1029A000401EA060FFF7D4FBFFF78AFE2068854237
:1029B00002D02846FFF75FF96069002812D020682E
:1029C00085420FD1606B28B140F2AF4209A112A03D
:1029D000FDF774FC14494FF080500860BFF34F8F2F
:1029E000BFF36F8F70BD0000400000206802002020
:1029F000240500202E2E5C2E2E5C4D6964646C65CF
:102A000077617265735C4672656552544F535C74AE
:102A100061736B732E6300004572726F723A2025EA
:102A2000732C2025640D0A0004ED00E002490A6AB7
:102A30000260C968416070474000002001490120E0
:102A4000C86170474000002070B50D46040005D1F4
:102A500040F6114207A110A0FDF730FC12480168B2
:102A600020461831FFF7C6FD2846BDE87040012119
:102A7000FEF7D0BF2E2E5C2E2E5C4D6964646C6513
:102A800077617265735C4672656552544F535C742E
:102A900061736B732E6300004572726F723A20256A
:102AA000732C2025640D0A004000002070B51546E7
:102AB0000E46040005D140F6474210A118A0FDF7CC
:102AC000FDFB1B4861680268D1618A6803681A626D
:102AD00002688B6818325A60026818328A6000688F
:102AE00084622068401C20600DB14FF0FF362946FB
:102AF0003046BDE87040FEF78DBF00002E2E5C2EE4
:102B00002E5C4D6964646C6577617265735C4672B6
:102B1000656552544F535C7461736B732E63000090
:102B20004572726F723A2025732C2025640D0A00BD
:102B3000400000202DE9F04116460F46050005D162
:102B400040F62B4214A11DA0FDF7B8FB1F4C606B93
:102B500028B940F62F4210A118A0FDF7AFFB21685D
:102B600047F00040886168682168C8618168226810
:102B700011622168826818315160216818318160C2
:102B8000206885622868401C28603046BDE8F04116
:102B90000121FEF73FBF00002E2E5C2E2E5C4D69FA
:102BA00064646C6577617265735C467265655254E6
:102BB0004F535C7461736B732E6300004572726FC8
:102BC000723A2025732C2025640D0A004000002055
:102BD00070B52E4E05460C46706B28B940F6AF42D4
:102BE0002BA134A0FDF76AFB44F000402860EC689C
:102BF0002CB940F6B74226A12EA0FDF75FFBD5E920
:102C0000012128699160D5E9011251604168A9420A
:102C100001D1A968416000222A610168491E016052
:102C2000D4E9023061699860D4E9020358604B68C6
:102C3000201D834201D1E3684B6062610A68521E25
:102C40000A60E36A0122356902FA03F1294331611E
:102C500003EB83011B4B03EB81014968A1608D6885
:102C6000E5608D6868608860E06A00EB800003EBD7
:102C70008001616153F82010491C43F82010E06A7C
:102C80003168C96A884200D9F26170BD40000020F5
:102C90002E2E5C2E2E5C4D6964646C6577617265C6
:102CA000735C4672656552544F535C7461736B7309
:102CB0002E6300004572726F723A2025732C202516
:102CC000640D0A00680200207CB516480025CDE995
:102CD00000502B46802214A1154800F0F9FB114C3E
:102CE0002C3C012803D100F091FE012802D0401CA9
:102CF00010D015E0502080F31188BFF34F8FBFF341
:102D00006F8F4FF0FF30A06201206061E56000F03E
:102D100081F905E040F6150206A10FA0FDF7CEFAF5
:102D2000206B7CBD6C00002049444C450000000035
:102D3000D11C00082E2E5C2E2E5C4D6964646C65DF
:102D400077617265735C4672656552544F535C746B
:102D500061736B732E6300004572726F723A2025A7
:102D6000732C2025640D0A000248416B491C416305
:102D7000704700004000002070B5134C606B10B12C
:102D80000120E06170BD0020E06120690F4EB0FAC3
:102D900080F0C0F11F0000EB800556F8250028B92F
:102DA00040F6F9320AA113A0FDF788FA06EB850078
:102DB00000F10802416849684160914201D14968C7
:102DC0004160C868206070BD40000020680200209B
:102DD0002E2E5C2E2E5C4D6964646C657761726585
:102DE000735C4672656552544F535C7461736B73C8
:102DF0002E6300004572726F723A2025732C2025D5
:102E0000640D0A0010B51C20FFF764FA040004D01A
:102E100000202060201DFFF7DFFB204610BD0000D2
:102E20002DE9F04100278846040005D140F2222216
:102E30001CA127A0FDF742FA5FEA186005D040F216
:102E4000232218A122A0FDF739FA261D04F10C0552
:102E5000FFF78AFF2168F06841EA0801216017E066
:102E6000D0E9001601F07F425301236821F07F4131
:102E700002D40B4203D10AE031EA030307D1D201A5
:102E800000D50F43216841F00071FFF7A1FE3046E5
:102E9000A842E5D12068B843206000F007FD206813
:102EA000BDE8F0812E2E5C2E2E5C4D6964646C654D
:102EB00077617265735C4672656552544F535C6509
:102EC00076656E745F67726F7570732E63000000B5
:102ED0004572726F723A2025732C2025640D0A000A
:102EE0002DE9F047DDF820909A4690460D46040003
:102EF0004FF0000705D14FF4A57236A140A0FDF7B1
:102F0000DDF9280E05D040F24B1232A13CA0FDF7AE
:102F1000D5F92DB94FF4A6722EA139A0FDF7CEF93F
:102F200000F004FB40B9B9F1000F05D040F24F1298
:102F300028A133A0FDF7C2F9FFF716FF2668524615
:102F400029463046FFF76EF930B1B8F1000F1AD0BC
:102F50002068A843206016E0B9F1000F13D0B8F143
:102F6000000F01D04FF08077BAF1000F01D047F089
:102F7000806745EA07014A46201DFFF7DBFD00F0A8
:102F800095FC18B10AE000F091FC1FE020494FF0D9
:102F900080500860BFF34F8FBFF36F8FFFF710FBB8
:102FA0000646800110D4FFF749FB266852462946A1
:102FB0003046FFF737F928B1B8F1000F02D020688A
:102FC000A8432060FFF77CFB26F07F463046BDE833
:102FD000F08700002E2E5C2E2E5C4D6964646C65BB
:102FE00077617265735C4672656552544F535C65D8
:102FF00076656E745F67726F7570732E6300000084
:103000004572726F723A2025732C2025640D0A00D8
:1030100004ED00E07CB5294D28780190FF20287050
:1030200028788DF800009DF800009DF8001000F051
:10303000F000884205D04FF4917221A12EA0FDF737
:103040003DF99DF80000304C00F050002070072042
:10305000A06005E09DF8001049008DF80010401EAA
:103060009DF800100906F5D4A06003280ED04FF497
:103070009B7213A120A0FDF721F9A068032805D0B9
:1030800040F23F120EA11CA0FDF718F9207A0002B1
:1030900000F4E060A060019828701C48016841F4C9
:1030A00070010160016841F070410160FFF798FB19
:1030B00000206060FDF7A6F800207CBD00E400E081
:1030C0002E2E5C2E2E5C4D6964646C657761726592
:1030D000735C4672656552544F535C706F727461D5
:1030E000626C655C525644535C41524D5F434D33B4
:1030F0005C706F72742E63004572726F723A202595
:10310000732C2025640D0A009C00002020ED00E0B7
:1031100010B5502080F31188BFF34F8FBFF36F8F2E
:1031200000F018FA18B104494FF0805008600020F0
:1031300080F3118810BD000004ED00E02DE9F0419E
:1031400017460E4605004FF000041FD0601EB0FB6E
:10315000F5F0B0421AD305FB06F010F1550F15D863
:103160005430FFF7B7F8040016D004F154005EB1F4
:103170002060C4E90F562046012100F02BF884F8A6
:1031800050700021A16407E02460F2E74FF4F2726E
:1031900003A10CA0FDF792F82046BDE8F0810000E5
:1031A0002E2E5C2E2E5C4D6964646C6577617265B1
:1031B000735C4672656552544F535C7175657565F5
:1031C0002E6300004572726F723A2025732C202501
:1031D000640D0A002DE9F0410F4604004FF001068E
:1031E0002DD0E06B002830D0B51EB5FBF0F1206C7F
:1031F00081422AD3FFF722FAD4E90F20216802FB8B
:103200000011A1600021A163216861600A46D4E930
:103210000F01401E00FB01212046E16000F8445FE1
:10322000457004F11000002F19D0FFF7D5F904F113
:103230002400FFF7D1F900BFFFF742FA0CE04FF48A
:1032400097720FA117A0FDF739F8002640F263121C
:103250000BA114A0FDF732F83046BDE8F0812169DA
:103260000029E9D000F09CFA0028E5D011494FF080
:1032700080500860BFF34F8FBFF36F8FDCE7000013
:103280002E2E5C2E2E5C4D6964646C6577617265D0
:10329000735C4672656552544F535C717565756514
:1032A0002E6300004572726F723A2025732C202520
:1032B000640D0A0004ED00E02DE9F747002683B015
:1032C0008A46040005D140F26B5245A14DA0FCF79F
:1032D000F5FFBAF1000F07D1206C28B140F26F5210
:1032E0003FA148A0FCF7EAFF00F020F938B90598A3
:1032F00028B140F274523AA142A0FCF7DFFFDFF898
:1033000014814FF000094FF0805700BFFFF796F986
:10331000A56BC5B151462046FEF764FC6D1EA56342
:10332000206950B104F1100000F03AFA28B1C8F851
:103330000070BFF34F8FBFF36F8FFFF7C1F901200C
:1033400006B0BDE8F087059808B11EB106E0FFF7AA
:10335000B7F927E06846FFF769FB0126FFF7B0F9E8
:10336000FFF702FDFFF76AF994F94400401C01D110
:1033700084F8449094F94500401C01D184F84590AC
:10338000FFF79EF905A9684600F046F80028204698
:103390000AD0FEF763FF00F089FA2046FEF774FDBD
:1033A0000028B3D00020CBE7FEF76EFD90B104F10A
:1033B00024000599FFF748FB2046FEF74FFF00F079
:1033C00075FA0028A2D1C8F80070BFF34F8FBFF381
:1033D0006F8F9BE72046FEF741FF00F067FA95E705
:1033E0002E2E5C2E2E5C4D6964646C65776172656F
:1033F000735C4672656552544F535C7175657565B3
:103400002E6300004572726F723A2025732C2025BE
:10341000640D0A0004ED00E02DE9F0410C460500C2
:1034200005D140F6F2421CA124A0FCF747FF2CB9BD
:1034300040F6F34218A121A0FCF740FFFFF7FEF889
:103440002249CB686F680868DA1B002690F859009B
:1034500018B1086880F8596018E02068B0F1FF3FA3
:1034600009D0D5F800C0096A8C4506D09F4204D81F
:10347000012526600BE0002509E0904205D9801A5D
:1034800020602846FFF7D2FAF5E726600125FFF70E
:1034900017F92846BDE8F0812E2E5C2E2E5C4D6972
:1034A00064646C6577617265735C467265655254DD
:1034B0004F535C7461736B732E6300004572726FBF
:1034C000723A2025732C2025640D0A00400000204C
:1034D0002DE9FF5F8346DDE90E87994616468A4649
:1034E0009000FEF7F7FE05001DD05C20FEF7F2FE0F
:1034F000040015D05C21FDF738F825630021CDE9E3
:103500000241CDE900874B46324651465846FEF708
:103510000FFC2046FEF7C6FA012004B0BDE8F09F7C
:103520002846FFF705F94FF0FF30F6E705484169F7
:1035300019B1406B18B1002070470120704702207C
:1035400070470000400000200148C068704700003C
:10355000400000202DE9F041494C0026606B28B165
:10356000A069401CA0613046BDE8F081E5686D1C93
:10357000E56011D1A06B006828B140F6BA2241A1E4
:1035800049A0FCF79BFEA06BE16BA163E063206A9E
:10359000401C2062FEF7DCFDA16A47488D420FD334
:1035A0004FF0000EA16B096839B1A16BC968C968F9
:1035B0004A68954212D2A26202E04FF0FF31A16246
:1035C0002168C96A01EB810150F82100012800D966
:1035D0000126E0690028C6D00126C4E7D1E90272BD
:1035E0004B69BA60D1E902277A605F680A1D974289
:1035F00001D1CF685F60C1F814E01F687F1E1F60B3
:10360000D1F828C0BCF1000F15D0D1E907379F6071
:10361000D1E907377B60DCF8047001F118039F42A1
:1036200002D10B6ACCF80430C1F828E0DCF8003095
:103630005B1ECCF80030CB6A0127D4F810C09F4045
:1036400047EA0C07276103EB830300EB83035B6806
:103650008B609F68CF609F687A609A60CA6A02EB4D
:10366000820200EB82034B6150F822305B1C40F871
:103670002230C96A2268D26A914293D9012691E721
:10368000400000202E2E5C2E2E5C4D6964646C651B
:1036900077617265735C4672656552544F535C7412
:1036A00061736B732E6300004572726F723A20254E
:1036B000732C2025640D0A006802002070B50400F8
:1036C0004FF000064BD0274D2868844205D041F2C8
:1036D0004B0225A12DA0FCF7F1FD206D28B941F288
:1036E0004C0221A129A0FCF7E9FD206D401E2065B8
:1036F000E26CE16A914232D088BB201DFEF746FFA2
:10370000012130B994F82C002A6901FA00F08243B3
:103710002A61E06CE062C0F12000A061E06A2A69E1
:103720008140114329611D4900EB800001EB8000BD
:103730004068A0608268E2608368221D5A608260EF
:10374000E06A00EB800001EB80006061E06A00EB62
:10375000800051F82020521C41F8202001263046DC
:1037600070BD0000400000202E2E5C2E2E5C4D69A6
:1037700064646C6577617265735C4672656552540A
:103780004F535C7461736B732E6300004572726FEC
:10379000723A2025732C2025640D0A00680200204F
:1037A00070B5C068C4682CB940F677422FA138A024
:1037B000FCF784FDD4E90720A16A9060D4E90702F0
:1037C00050604A6804F11800824201D1226A4A60BE
:1037D0000023A3620A68521E0A6031494A6B012520
:1037E0009AB1304B5A68E2619668266296687060BA
:1037F0009060A3621868401C1860E06A0A68D26A88
:10380000904231D90120CD6170BDD4E90262606976
:10381000B260D4E9022672604668221D964201D148
:10382000E6684660636103685B1E0360E06A0E69D8
:1038300005FA00F333430B611B4B00EB800003EBF5
:1038400080004068A0608668E6608668726082607A
:10385000E06A00EB800003EB8002626153F82020F5
:10386000521C43F82020C8E7002070BD2E2E5C2E8D
:103870002E5C4D6964646C6577617265735C467239
:10388000656552544F535C7461736B732E63000013
:103890004572726F723A2025732C2025640D0A0040
:1038A0004000002010050020680200202DE9F041B2
:1038B000454D00242746686B28B940F6880243A18D
:1038C0004BA0FCF7FBFCFEF7B9FE686B401E68637B
:1038D000686B002872D1A868494B00264FF0010898
:1038E000F0BB6BE0D868C468D4E90721A06A916096
:1038F000D4E907125160426804F118018A4201D1EB
:10390000216A4160A6620168491E0160D4E9022172
:1039100060699160D4E9021251604268211D8A42B7
:1039200001D1E268426066610268521E0260E26A8A
:10393000D5F810C008FA02F040EA0C00286102EB4A
:103940008200304A02EB80004068A060D0F808C0D6
:10395000C4F80CC0D0F808C0CCF80410816000E0B6
:1039600011E0E06A00EB800002EB8001616152F837
:103970002010491C42F82010E06A2968C96A884270
:1039800001D3C5F81C8018680028ABD10CB1FEF734
:10399000DFFBAC6944B100BFFFF7DCFD08B1C5F83F
:1039A0001C80641EF8D1AE61E86938B11649012760
:1039B00038070860BFF34F8FBFF36F8FFEF780FEAD
:1039C0003846BDE8F0810000400000202E2E5C2E1D
:1039D0002E5C4D6964646C6577617265735C4672D8
:1039E000656552544F535C7461736B732E630000B2
:1039F0004572726F723A2025732C2025640D0A00DF
:103A0000100500206802002004ED00E01CB5002431
:103A1000FEF7C0F80C48006868B10B491F20091D6B
:103A2000CDE9000100234FF4807208A10948FFF797
:103A30004FFD040005D140F2191207A10FA0FCF7B9
:103A40003DFC20461CBD00002C000020546D72205F
:103A500053766300392200082E2E5C2E2E5C4D69B1
:103A600064646C6577617265735C46726565525417
:103A70004F535C74696D6572732E63004572726F8B
:103A8000723A2025732C2025640D0A0000000000E6
:103A900000000000010203040607080900000000FE
:103AA000010203043031323334353637383941427C
:103AB0004344454640305800303132333435363790
:103AC000383961626364656640307800040000083C
:103AD00000000000000000020001000010000000D3
:103AE000003B000800000020A80000006C01000856
:103AF000A83B0008A8000020483300008801000807
:103B00000024F4000000000000000000000000009D
:103B100000000000000000000000000000000000A5
:103B20000100000010000000000000000000000084
:103B30000000000000000000000000000000000085
:103B40000000000000000000000000000000000075
:103B50000000000000000000000000000000000065
:103B60000000000000000000000000000000000055
:103B70001F00000000000000000000000000000026
:103B80000000000000000000000000000000000035
:103B90000000000000000000000000000000000025
:083BA000AAAAAAAA0000000075
:0400000508000131BD
:00000001FF
