:020000040800F2
:10000000E833002075020008631600085F16000838
:10001000611600083D0700082918000800000000CC
:10002000000000000000000000000000DD010008EA
:100030003F070008000000002102000865160008C4
:100040008F0200088F0200088F0200088F0200084C
:100050008F0200088F020008410700088F02000885
:100060008F0200088F0200088F0200088F0200082C
:100070008F0200088F0200088F0200088F0200081C
:100080008F0200088F0200088F0200088F0200080C
:100090008F0200088F0200088F0200086D07000819
:1000A0008F0200088F0200088F0200088F020008EC
:1000B0008F0200088F0200088F0200088F020008DC
:1000C0008F0200088F0200088F0200088F020008CC
:1000D0008F020008091800088F0200088F0200082C
:1000E000550700088F0200088F0200088F020008E1
:1000F0008F0200088F0200088F0200088F0200089C
:100100008F0200088F0200088F0200088F0200088B
:100110008F0200088F020008811600088D16000863
:100120008F0200088F0200088F0200088F0200086B
:1001300000F002F800F042F80AA090E8000C8244B7
:100140008344AAF10107DA4501D100F037F8AFF294
:10015000090EBAE80F0013F0010F18BFFB1A43F0A5
:10016000010318470835000028350000103A24BF65
:1001700078C878C1FAD8520724BF30C830C144BF0C
:1001800004680C607047000000230024002500264E
:10019000103A28BF78C1FBD8520728BF30C148BFEA
:1001A0000B607047642900F0F180732900F04882E9
:1001B000002070471FB51FBD10B510BD00F08CFAB0
:1001C0001146FFF7F7FF01F0A9FB00F0AAFA03B40C
:1001D000FFF7F2FF03BC01F038FB0000224B196867
:1001E0000868B0E8F00F80F30988BFF36F8F4FF015
:1001F000000080F311884EF00D0E704700000000E3
:1002000006480068006880F3088862B661B6BFF3EC
:100210004F8FBFF36F8F00DF00BF00BF08ED00E01E
:10022000EFF30980BFF36F8F0F4B1A6820E9F00FCF
:10023000106008B54FF0500080F31188BFF34F8F66
:10024000BFF36F8F02F024FC4FF0000080F31188A1
:10025000BDE8084019680868B0E8F00F80F3098825
:10026000BFF36F8F704700BF3C000020EFF30580A5
:10027000704700000948804709480047FEE7FEE74D
:10028000FEE7FEE7FEE7FEE7FEE7FEE7FEE7FEE746
:1002900004480549054A064B704700007D160008D2
:1002A00031010008E82D0020E8330020E82F00206D
:1002B000E82F0020704700000FB4044910B503AACE
:1002C000029800F0C1F910BC5DF814FB1800002082
:1002D0002DE9F0410E460446002020622046E168E8
:1002E000884730B3252805D0D4E901219047206AFA
:1002F000401CF2E7E168204600278847050018D037
:10030000A5F14100192802D820354FF40067324684
:10031000294620462760FFF745FF40B1012804D059
:10032000F61D26F007060836D8E7361DD6E728461C
:10033000DAE7206ABDE8F08170B50C460546012A6F
:1003400005D02878800600D5EA69002302E0012361
:1003500005E05B1C934202D2E05C0028F9D1A86959
:10036000E618C01AA861286A184428622846AFF324
:10037000008004E0D5E9012114F8010B9047B44254
:10038000F8D32846AFF3008070BD00002DE9F0419E
:100390000646002410687529314616A510D0AFF323
:1003A0000080002802DA404213A507E031688A077E
:1003B00001D512A502E0490704D511A5012401E0E9
:1003C000AFF3008000210A2206F1240709E0B0FB08
:1003D000F2FCB0FBF2F302FB1C00303078541846FC
:1003E000491C0028F3D123462A463046BDE8F04197
:1003F00000F0A2B8000000002D0000002B0000005B
:1004000020000000032A40F2308010F0030C00F0BE
:10041000158011F8013BBCF1020F624498BF11F83E
:1004200001CB00F8013B38BF11F8013BA2F10402F7
:1004300098BF00F801CB38BF00F8013B11F003036F
:1004400000F01481083AC0F0088051F8043B083AE3
:1004500051F804CBA0E80810F5E7121D5CBF51F875
:10046000043B40F8043BAFF30080D20724BF11F8EF
:10047000013B11F801CB48BF11F8012B24BF00F854
:10048000013B00F801CB48BF00F8012B704702F098
:10049000FF0343EA032242EA024200F002B84FF0AF
:1004A00000020429C0F0128010F0030C00F01B8041
:1004B000CCF1040CBCF1020F18BF00F8012BA8BF4F
:1004C00020F8022BA1EB0C0100F00DB85FEAC17C13
:1004D00024BF00F8012B00F8012B48BF00F8012BC6
:1004E00070474FF0000200B51346944696462039F7
:1004F00022BFA0E80C50A0E80C50B1F12001BFF4DD
:10050000F7AF090728BFA0E80C5048BF0CC05DF842
:1005100004EB890028BF40F8042B08BF704748BF90
:1005200020F8022B11F0804F18BF00F8012B704704
:1005300070477047704770472DE9F0470D46994660
:100540009246044600F124080168880604D5E06953
:1005500021F01001216000E00120A84201DD471BCD
:1005600000E00027A1697A1902EB0900081AA061CE
:100570002078C00602D42046AFF30080002608E0B1
:10058000D4E901211AF806009047206A401C761C25
:1005900020624E45F4DB2078C0060AD52046AFF332
:1005A000008006E0D4E9012130209047206A401CF9
:1005B0002062381EA7F10107F4DC07E0D4E901212D
:1005C00018F805009047206A401C2062281EA5F1FB
:1005D0000105F3DC2046AFF300802078000602D549
:1005E0000220BDE8F0870120FBE7000001694A1CFA
:1005F00002610878704700B58FB0CDE90131002164
:10060000059105497944CDE9031011466846FFF785
:100610005FFE0FB000BD0000E5FFFFFF10B54369AE
:1006200013B1AFF3008001E0FFF786FE012010BD9B
:10063000127800F124010A7000224A700122EDE7CD
:1006400011684FF0FF32E9E7074B70B50D467B4468
:10065000FFF7D1FF0446284600F03AF810B14FF0FA
:10066000FF3070BD204670BD7F12000010B5203AEB
:10067000C0F00B80B1E81850203AA0E81850B1E85B
:100680001850A0E81850BFF4F5AF5FEA027C24BF11
:10069000B1E81850A0E8185044BF18C918C0BDE808
:1006A00010405FEA827C24BF51F8043B40F8043BD1
:1006B00008BF7047D20728BF31F8023B48BF11F886
:1006C000012B28BF20F8023B48BF00F8012B7047E0
:1006D000007B00F080007047754600F02BF8AE46B6
:1006E00005006946534620F00700854618B020B53E
:1006F000FFF7CEFDBDE820404FF000064FF00007A9
:100700004FF000084FF0000B21F00701AC46ACE8B9
:10071000C009ACE8C009ACE8C009ACE8C0098D4626
:10072000704710B50446AFF300802046BDE8104086
:10073000FFF74DBD00487047882D0020FEE7704749
:1007400010B5012000F0ECF801490120086010BD4F
:100750001404014010B54FF40044204600F0E0F8C6
:100760000148046010BD00001404014010B52020B1
:1007700000F0D6F801492020086010BD14040140A3
:100780002DE9F05F90F821100024022903D0042104
:100790008163012485E001680A6822F00E020A6084
:1007A00001680A6822F001020A603F4E3E4FB2150E
:1007B000DFF8F4C0DFF8F090DFF8ECA0DFF8E8B085
:1007C000DFF8E4E00168783F13011502ACF1640C36
:1007D000A9F15009AAF13C0AABF1280BAEF1140EB5
:1007E0004FF48018B14227D9B9420ED0614512D0DA
:1007F00049451DD0514518D0594518D0714501D1F2
:10080000424615E0294EB14201D1012210E0274EA7
:100810001436B14201D110220AE0244E2836B142EA
:1008200006D0224A3C32914201D11A4600E02A46C3
:100830001E49091F0A602BE0B94213D0614517D049
:10084000494522D051451DD059451DD0714501D192
:1008500042461AE0B14202D14FF0807215E0134EC9
:10086000B14201D1012210E0104E1436B14201D143
:1008700010220AE00D4E2836B14206D00B4A3C3217
:10088000914201D11A4600E02A46074980394A6060
:10089000012180F82110002180F82010416B01B166
:1008A00088472046BDE8F09F8000024008040240CF
:1008B0002DE9F0410546142000F0E2FF154C4FF4FD
:1008C0008076012D18D0144F202D0AD0F1018D42D1
:1008D0001ED1204600F02CF9002819D104213846F9
:1008E00012E020210D4800F023F9002810D13146F4
:1008F000204600F022F9F1E70121204600F018F926
:10090000012805D131462046BDE8F04100F015B977
:10091000BDE8F081000801400014014000100140D2
:10092000044910B50A68024202D00860FFF7C0FF10
:1009300010BD0000140401402DE9F84FDFF8C89104
:10094000002409F1040A0AF1040B23460F270BF1D6
:10095000040ED1E00125A54006EA0502AA4276D19F
:10096000DFF8A8C14E68A6EB0C0866452BD00DDC5D
:10097000032E34D005DC36B3012E19D0022E2FD130
:100980001BE0112E16D0122E2AD119E0B8F5881FBF
:1009900019D006DCB8F5803F15D0B8F5801F1FD1FF
:1009A00011E0B8F5001F0ED0B8F5041F18D10AE009
:1009B000CB6815E0CB681B1D12E0CB6808330FE055
:1009C000CB680C330CE08B682BB1012B4FF0080384
:1009D00003D0456104E0042302E0056100E0002348
:1009E000FF2A01D8064601E000F104064FEA84051B
:1009F00001D9A5F12005D6F8008007FA05FC28EA00
:100A00000C0803FA05F548EA0508C6F800804D68A9
:100A1000ED0070D53E4DAE6946F00106AE61AD69A0
:100A200024F0030605F0010500953A4D06EB050C90
:100A3000DCF80850A607360F07FA06F825EA08057D
:100A4000DFF8D480404503D14FF0000825E052E0A4
:100A5000DFF8C880404502D14FF001081DE0DFF803
:100A6000C080404502D14FF0020816E0DFF8B480A4
:100A7000404502D14FF003080FE0DFF8AC8040455D
:100A800002D14FF0040808E0DFF8A080404502D111
:100A90004FF0050801E04FF0060808FA06F848EAAA
:100AA0000508CCF808804D68D9F80060ED034D4684
:100AB00001D5164300E096432E604D68DAF80060D9
:100AC000AD03554601D5164300E096432E604D68B0
:100AD000DBF80060ED025D4601D5164300E0964369
:100AE0002E604D68DEF80060AD02754601D51643F4
:100AF00000E096432E60641C0A681646E2407FF4CC
:100B000029AFBDE8F88F000000040140000011107B
:100B1000001002400000014000080140000C0140AC
:100B2000001001400014014000180140001C014069
:100B30008068084000D001207047C26821EA0203A3
:100B40000A4043EA024101617047000001488068A1
:100B5000704700001C0000200248816802781144A0
:100B6000816070471C000020074810B5016841F003
:100B700010010160052000F057F80F2000F006F882
:100B800000F024F8002010BD0020024070B50D4D8B
:100B900004464FF47A712878B1FBF0F00A490968ED
:100BA000B1FBF0F000F0DAFA48B9102C07D20022BD
:100BB0002146501E00F018F800206C6070BD012026
:100BC00070BD00001C0000200000002070470028BD
:100BD00009DB00F01F02012191404009800000F173
:100BE000E020C0F800117047F0B40E4B1B680C46B3
:100BF000C3F30223C3F10705042D00D90425191DF1
:100C0000072901D2002300E0DB1E012606FA05F1C8
:100C1000491E214099409E40761E16403143F0BC4B
:100C200000F003BE0CED00E0064900F00702086882
:100C30004FF6FF03184040EA0220034A10430860C1
:100C4000704700000CED00E00000FA052DE9F047C8
:100C50000F46050061D0434E306800F00700B842EF
:100C600009D2306820F0070038433060306800F067
:100C70000700B84251D128683B4C810712D5400784
:100C800003D5606840F4E06060602878000703D511
:100C9000606840F4605060606068A96820F0F0000F
:100CA000084360602878C00728D06868012810D001
:100CB0002168022810D0890700292EDA616821F006
:100CC000030101436160FFF741FF804641F288392B
:100CD0000DE021688903EFE78901EDE7FFF736FFB3
:100CE000A0EB0801494502D90320BDE8F087606800
:100CF000696800F00C00B0EB810FEFD1306800F0B4
:100D00000700B8420BD9306820F007003843306044
:100D1000306800F00700B84201D00120E5E72878EC
:100D2000400705D56068E96820F4E060084360602A
:100D30002878000706D56068296920F4605040EAE9
:100D4000C100606000F038F86168084AC1F303111F
:100D5000515CC8400649086006480068FFF716FF66
:100D60000020C2E700200240001002405436000874
:100D70000000002020000020044805490068496860
:100D8000044AC1F30221515CC840704700000020B2
:100D900000100240643600080448054900684968AC
:100DA000044AC1F3C221515CC840704700000020D2
:100DB000001002406436000812A185B00FC98DE80A
:100DC0000F0014A0144A006804905168134801F001
:100DD0000C03042B10D0082B0ED1C1F38343C9039D
:100DE0001DF803000AD5516804AAC1F34041515CC3
:100DF0000A4A5043B0FBF1F005B070470849484338
:100E0000FAE7000002030405060708090A0B0C0DA7
:100E10000E0F1010010200000010024000127A00B4
:100E200000093D002DE9F84F040070D02078C04D36
:100E3000C00749D06868C0F38100012807D06868FE
:100E4000C0F38100022809D16868C00306D528686C
:100E5000800339D560680028E7D035E06068B0F5D8
:100E6000803F0BD010B1B0F5A02F11D0286820F42E
:100E700080302860286820F4802002E0286840F450
:100E800080302860606890B1FFF760FE06460AE097
:100E9000286840F480202860F0E700BFFFF756FE86
:100EA000801B642873D828688003F7D50CE0FFF70F
:100EB0004DFE064605E000BFFFF748FE801B642894
:100EC000F0D828688003F7D420789A4E80074FF036
:100ED00001094FF0000839D5686810F00C0F07D0F1
:100EE0006868C0F38100022809D16868C00306D48D
:100EF0002868800714D52069012808D110E02069EE
:100F0000B0B1C6F80090FFF721FE074605E00AE100
:100F1000FFF71CFEC01B0228C4D828688007F7D53D
:100F20002868616920F0F80040EAC10028600DE0FF
:100F3000C6F80080FFF70AFE074604E0FFF706FE4A
:100F4000C01B022823D828688007F7D42078000720
:100F50002CD57948A169D9B1C0F80090FFF7F6FD0A
:100F6000074604E0FFF7F2FDC01B02280FD8686AAD
:100F70008007F7D571484FF4FA510068B0FBF1F0E3
:100F8000009000BF0098411E0091FAD20EE080E070
:100F9000C0F80080FFF7DAFD074604E0FFF7D6FD52
:100FA000C01B022875D8686A8007F7D420784007EC
:100FB00060D5E8690027C00008D4E86940F0805097
:100FC000E861E869012700F0805000905C48016802
:100FD000C90513D40168834641F480710160FFF7AD
:100FE000B5FD824606E000BFFFF7B0FDA0EB0A00AA
:100FF00064284ED8DBF80000C005F5D5E06801286C
:101000000AD008B1052813D0286A20F00100286210
:10101000286A20F0040002E0286A40F001002862FB
:10102000E06841F2883B98B1FFF790FD82460BE003
:10103000286A40F004002862EEE700BFFFF786FD53
:10104000A0EB0A0159455AD8286A8007F6D50CE06A
:10105000FFF77CFD824605E0FFF778FDA0EB0A0173
:1010600059454CD8286A8007F6D41FB1E86920F0AA
:101070008050E861E06988B36968C1F381010229A1
:1010800044D00228C6F8608004D0FFF75FFD044614
:1010900038E034E0FFF75AFD074604E0FFF756FD5D
:1010A000C01B02282BD828688001F7D4206AB0F52D
:1010B000803F05D16868A16820F40030084368606B
:1010C000D4E908010843696821F474110843686091
:1010D000C6F86090FFF73AFD044606E025E000BF41
:1010E000FFF734FD001B022809D828688001F7D5D6
:1010F0001BE000BFFFF72AFD001B022802D90320D6
:10110000BDE8F88F28688001F4D40EE00128F7D0FC
:101110006868226A00F48031914204D1616A00F467
:101120007010884201D00120EAE70020E8E70000C3
:1011300000100240000042428004424200000020B1
:10114000007000404FF0E0210428086903D020F02F
:1011500004000861704740F00400FAE710B5401E33
:10116000B0F1807F01D3012010BD4FF0E024606119
:101170000F21601700F059FB0020A06107202061BB
:10118000002010BD70477047704770B50446006876
:1011900001694FF00005C943890715D4C168C943E7
:1011A000890711D4E91E0161012020772068806938
:1011B0008007204602D0FFF7E7FF04E000F098F830
:1011C000204600F096F8257720680169C943490751
:1011D00017D4C168C943490713D46FF004010161F2
:1011E000022020772068806910F4407F204602D0DA
:1011F000FFF7CAFF04E000F07BF8204600F079F822
:10120000257720680169C943090716D4C168C94315
:10121000090712D46FF008010161042020772068CB
:10122000C0698007204602D0FFF7AEFF04E000F05F
:101230005FF8204600F05DF8257720680169C94312
:10124000C90617D4C168C943C90613D46FF0100189
:101250000161082020772068C06910F4407F204693
:1012600002D0FFF791FF04E000F042F8204600F0C2
:1012700040F8257720680169C943C90708D1C168CA
:10128000C943C90704D1891E0161204600F032F824
:1012900020680169C943090609D4C168C943090620
:1012A00005D46FF0800101612046FFF76BFF2068D5
:1012B0000169C943490609D4C168C943490605D42F
:1012C0006FF040010161204600F042F8206801699A
:1012D000C94389060BD4C168C943890607D46FF096
:1012E000200101612046BDE87040FFF74CBF70BD92
:1012F0007047704700680649884201D105A003E0A5
:101300000B49884202D10BA0FEF7D6BF7047000000
:101310000010004054494D36D3C5CFC8BCB6CEAA44
:1013200036A3ACD5FDD4DAD4CBD0D0A3A10D0A001E
:101330000014004054494D37D3C5CFC8BCB6CEAA1F
:1013400034A3ACD5FDD4DAD4CBD0D0A3A10D0A0000
:101350007047704770B5026804461068D1685369D9
:1013600010F00F0F52D003F0010501F490762E43D8
:101370005FD0C20705D0CA0503D5E26B42F0010277
:10138000E263420705D5DA0703D0E26B42F00202BE
:10139000E263820705D5DA0703D0E26B42F004026C
:1013A000E263020707D501F020022A4303D0E26B73
:1013B00042F00802E263E26B002A33D0800604D5D3
:1013C000880602D5204600F07DF920684069E16B6F
:1013D000C0F38010090700D428B3204600F064F958
:1013E0002068416949061AD5416921F040014161EF
:1013F000606BA0B12D494163606BFFF7C1F9002814
:1014000010D0606B416BBDE870400847830610D573
:101410008B060ED52046BDE8704000F053B920463B
:10142000FFF797FF70BD2046FFF793FF0020E063B2
:1014300070BD03062BD50B0629D594F83900212859
:10144000F6D1A068B0F5805F01D12069B0B1206A03
:10145000411C2162216800784860E08C401E000435
:10146000000CE084E4D12068C16821F08001C160F3
:101470002068C16841F04001C16070BD206A0088E9
:10148000C0F308005060206A801C2062E5E7400637
:10149000F3D54806F1D5D168204621F04001D1604E
:1014A000202184F8391000F0D9F870BD9916000891
:1014B00070B5040004D094F83900002510B106E09E
:1014C000012070BD84F83850204600F023F8242015
:1014D00084F839002068C16821F40051C1602046B9
:1014E00000F036F92068016921F49041016120681B
:1014F000416921F02A0141612068C16841F400512D
:10150000C160E563202084F8390084F83A000020A7
:1015100070BD000010B500681E4986B0884236D103
:101520001D48816941F004018161816901F0040174
:101530000491816941F004018161816901F0040134
:101540000491816941F4804181618069134C00F408
:10155000804004904FF40070009002200190012020
:1015600002900320039069462046FFF7E5F9201515
:1015700000900020019069462046FFF7DDF9252004
:10158000FFF725FB032211462520FFF72DFB06B0B0
:1015900010BD00000038014000100240000801406A
:1015A00090F83A30202B22D1F9B1F2B190F83830CE
:1015B000012B1CD081628285C2850021C163222259
:1015C00080F83A2080F838100168CA6842F48072C6
:1015D000CA6001684A6942F001024A610068C16854
:1015E00041F02001C16000207047012070470220B7
:1015F0007047000030B400681549884225D115486D
:1016000041880A0416D402464C0412784FF00003B5
:1016100004D50A2A0DD141F4004114E00D2A10D05E
:10162000C1F30D040C4D491C89B22A554180C729CC
:1016300000D943800848012230BC0649C830FFF772
:10164000AFBF41F480414180F4E730BC70470000F7
:101650000038014014000020A40000207047FEE77D
:10166000FEE7704710B5FFF777FA01F043FD012858
:1016700003D0BDE8104001F0CFBA10BD70470000A4
:101680000148FFF782BD0000AC0100200148FFF7D0
:101690007CBD0000F401002010B5406A0021C18526
:1016A000C184FFF756FE10BD0168CA6822F490722B
:1016B000CA6001684A6922F001024A61202180F86B
:1016C0003A10704710B590F83A10222901D0022044
:1016D00010BD82684FF480539A4201D1016921B153
:1016E000816A9A421BD04AB10AE00268816A526854
:1016F000C2F308020A80816A891C08E0026972B19B
:101700000268526802F07F020A70816A491C816295
:10171000C18D491E0904090CC18503D016E0026879
:101720005268F1E70168CA6822F02002CA600168C5
:10173000CA6822F48072CA6001684A6922F0010214
:101740004A61202180F83A10FFF754FF002010BDB5
:1017500070B5044600680169E26821F44051114304
:1017600001612169A0680843616908432168CA686A
:1017700041F20C639A430243CA6020684169A2693E
:1017800021F44071114341611E492068884202D111
:10179000FFF702FB01E0FFF7EFFA00EBC00101EBFE
:1017A0000012606864218000B2FBF0F3B3FBF1F338
:1017B0006FF018067343B2FBF0F5B2FBF0F605EBE1
:1017C0008305322303EB0515B5FBF1F5B6FBF1F606
:1017D00005F0F00505EB0615B2FBF0F6B2FBF0F0F4
:1017E000B0FBF1F06FF01802504306EB800003EB02
:1017F0000010B0FBF1F0216800F00F002844886071
:1018000070BD00000038014010B50548FFF7A2FD8B
:10181000012204490248FFF7C3FE0028F8D110BD99
:101820006C01002014000020FEE70907090E0028C3
:1018300004DB00F1E02080F80014704700F00F0096
:1018400000F1E02080F8141D7047704770B5054620
:101850004FF0E02400202061FFF774FC0749E808FE
:1018600008604FF47A714843216941F00201216117
:101870006061206940F00100206170BD100000200F
:1018800070B5054600244FF47A7603E0304600F048
:1018900005F8641CAC42F9D370BD000070B54FF080
:1018A000E024002265690949A36909684843A169E0
:1018B0009942FCD002D2A3EB010302E0A5EB0106A2
:1018C00033441A440B468242F1D370BD100000200D
:1018D00004490A685206FCD5024AC1B2121D1160C1
:1018E00070470000003801401CB507490120CDE9D0
:1018F00000010023802205A1074801F06DFBBDE82F
:101900001C4001F06DB80000040000207374617287
:10191000745F7461736B00002523000810B5FFF736
:1019200023F94FF4E01000F02BFD4820FFF78EFF65
:101930004FF4E13000F070FDFFF7D6FF002010BD3E
:101940002DE9F041204C0F460546E668216800204D
:1019500081F859002068001D00F07AFD38B9206830
:1019600090F82C1001208840216981432161681C76
:1019700015D1A7B11549226848689060236882682C
:10198000DA6022688368121D5A602268121D826024
:10199000206841610868401C0860BDE8F08120684B
:1019A0003544B5424560216805D2E06BBDE8F041A1
:1019B000091D00F075BDA06B091D00F071FDA06A46
:1019C0008542EAD2A562E8E73C0000203405002009
:1019D0002DE9F041054600F087FD354CA068401C1C
:1019E000A0602068334F10B1606930B32BE02560F0
:1019F000A068012827D1002606EB860007EB8000AF
:101A000000F040FD761C202EF6D32B4800F03AFD66
:101A10002948143000F036FD2748283000F032FD08
:101A200025483C3000F02EFD2348503000F02AFDC0
:101A30002148A0631430E06305E02068E96AC06AC9
:101A4000884200D82560606A401C60626864E96A68
:101A50000120226988401043206101EB810007EBDF
:101A600080004068A8608168E9608268291D516033
:101A70008160E86A00EB800007EB8001696157F83C
:101A80002010491C47F8201000F070FD6069002804
:101A90000CD02068E96AC06A884207D207494FF033
:101AA00080500860BFF34F8FBFF36F8FBDE8F081A8
:101AB0003C00002064020020E404002004ED00E06B
:101AC00010B500F011FD0E4C2068A0B90D4800F0D3
:101AD000D9FC0C48143000F0D5FC0A48E060143002
:101AE000206100221021052001F0ACF8206010B127
:101AF00005A100F0DDFDBDE8104000F037BD00009D
:101B0000280000203C020020546D725100000000AB
:101B100030B4026C0B46002A0BD0C1681144C1607E
:101B20008468A14201D30168C16030BC1846FEF749
:101B300069BC30BC70472DE9F041856B17460446FF
:101B40000026026C82B1C7B1E068FEF75BFCE16879
:101B5000206C091AE1602268914202D2A168081A39
:101B6000E060022F16D017E02068A8B9A06801F045
:101B700089FB06460020A0600EE06068FEF742FC8C
:101B8000216C606808446060A168884204D32068C2
:101B9000606001E005B16D1E6D1CA5633046BDE8B7
:101BA000F08110B50446006B00F018FD2046BDE83A
:101BB000104000F013BD00000E484FF420514207C2
:101BC00006D0C01D0B4920F00700411AC1F5205175
:101BD000094A00230144C2E900030839143A21F0FC
:101BE000070111604B600B600B1AC0E90013936092
:101BF000536070478805002090000020144E154C5B
:101C0000A6F52F774FF08058DFF84C9012E000BF18
:101C100000F06AFCF068C568281D00F019FCA06897
:101C2000401EA0606068401E606000F09FFC284677
:101C3000FFF7B7FF60680028EAD138680128F9D9B2
:101C4000C9F80080BFF34F8FBFF36F8FF2E700003A
:101C5000200500203C00002004ED00E02DE9F047C5
:101C6000DDE909840E461746824691009946089D93
:101C7000A522206BFEF70BFC6FF00301206B01EB3C
:101C80008701084420F00707780705D040F25D324D
:101C90001AA123A0FEF710FB66B100202218315CC8
:101CA00082F83410315C11B1401C1028F6D30020AA
:101CB00084F84300202D06D340F292320FA118A0E1
:101CC000FEF7FAFA1F25E562201DE56400F0E5FB4A
:101CD00004F1180000F0E1FB2461C5F1200064620A
:101CE000A0614A465146384600F00AFB2060B8F130
:101CF000000F01D0C8F80040BDE8F0872E2E5C2E02
:101D00002E5C4D6964646C6577617265735C4672C4
:101D1000656552544F535C7461736B732E6300009E
:101D20004572726F723A2025732C2025640D0A00CB
:101D300030B5114900E011460A688242FBD34B6876
:101D40005C18844203D140681844486008464368E0
:101D50001C18944209D1084C143C2468A24209D0B2
:101D600052681A4442600A6812680260814200D0D8
:101D7000086030BD0460F9E79000002070B50024D1
:101D800041600B4D0061914206D8D11A826991429F
:101D900006D2011D286907E09A4203D2994201D375
:101DA000012403E0011DE86800F07AFB204670BDC5
:101DB0002800002010B5044600F096FBA06B28B167
:101DC0005FF0000400F0D2FB204610BD0124F9E7CB
:101DD000F1B500980026846C2CB940F6E3321BA1C3
:101DE00023A0FEF769FAA06BE16B884205D340F6A9
:101DF000E43216A11EA0FEF75FFAA06BE16B8842E9
:101E000022D294F94550002269462046FFF793FEFE
:101E10000646681C06D000F02FFB854214D27F2DA9
:101E200009D00EE0606A78B104F1240001F09CFA58
:101E300050B1012608E040F6044204A10CA0FEF7D0
:101E40003BFA6D1C84F845503046F8BD2E2E5C2EB2
:101E50002E5C4D6964646C6577617265735C467273
:101E6000656552544F535C71756575652E6300004E
:101E70004572726F723A2025732C2025640D0A007A
:101E800070B506460D480D46C068C068C468201D80
:101E900000F0DEFA94F82800410705D52A463146BD
:101EA000204600F0D7F803E000F0FE0084F8280098
:101EB0002046216ABDE87040084700002800002045
:101EC00070B586B03A4E6AE00098002806DADDE97F
:101ED0000201019A90470098002860DB029C60692B
:101EE00010B1201D00F0B4FA04A800F0D5F80546A2
:101EF00000980A2853D2DFE800F0520505292F4642
:101F00000505292F94F828002A4640F0010084F89E
:101F100028000198A169034601442046FFF72EFFDF
:101F200000283CD094F82800410707D50198A16902
:101F30002A460144204600F08DF803E000F0FE0040
:101F400084F82800216A2046884728E014F8280FE2
:101F500000F0FE00207022E094F8280040F001001C
:101F600084F828000198A06128B940F25E3211A1DE
:101F700019A0FEF7A1F9A0692B4641191A4620467F
:101F8000FFF7FCFE0BE094F82800810703D42046FD
:101F900000F024FB03E000F0FE0084F8280000229B
:101FA0006946306800F00CFF00288DD106B070BD86
:101FB000280000202E2E5C2E2E5C4D6964646C651A
:101FC00077617265735C4672656552544F535C74F9
:101FD000696D6572732E63004572726F723A2025C7
:101FE000732C2025640D0A00F8B50D46064600F056
:101FF00047FD684600F050F80446009810B101F023
:1020000039FAF8BD1148ADB101690968D9B10025A7
:10201000311B2A46006800F08DFB01F02BFA0028E6
:10202000EFD10B494FF080500860BFF34F8FBFF3E3
:102030006F8FF8BDA642EBD801F01CFA214630465E
:10204000FFF71EFFF8BD0125E2E700002800002091
:1020500004ED00E070B516460C46054604E0A8699C
:10206000296A044428468847A8692346011932464C
:102070002846FFF783FE0028F1D170BD0548816B2B
:10208000096821B1816BC9680968816270474FF0A6
:10209000FF31FAE73C0000202DE9F041064601F04F
:1020A00037F80E4C0546A068854214D24FF0FF3732
:1020B00004E0C06839460068FFF7E2FEE0680168A6
:1020C0000029F6D12169C4E90310012030602846B7
:1020D000A560BDE8F0810020F8E70000280000209E
:1020E00008484068401C04D0D12207A114A0FEF784
:1020F000E3F8502080F31188BFF34F8FBFF36F8F49
:10210000FEE70000980000202E2E5C2E2E5C4D690C
:1021100064646C6577617265735C46726565525480
:102120004F535C706F727461626C655C52564453BD
:102130005C41524D5F434D335C706F72742E63008F
:102140004572726F723A2025732C2025640D0A00A7
:10215000074CE068016841B1C0680021D0F8000078
:10216000FFF742FFFFF7ACFEF3E701210020F7E79E
:10217000280000202DE9F041044600F0B5F994F95B
:10218000455004F124060FE0A06C18B12046FFF77B
:102190001FFE04E0606A48B1304601F0E5F808B17E
:1021A00000F0A2FB6D1E6DB2002DEDDC4FF0FF368E
:1021B00084F8456000F0DAF900F096F994F944509B
:1021C00004F1100709E0206948B1384601F0CCF865
:1021D00008B100F089FB6D1E6DB2002DF3DC84F8B0
:1021E0004460BDE8F04100F0C1B900002DE9F041C4
:1021F0000446002600F044FC2E4F386808B9FFF76B
:10220000DBFC002C49D004F00700C0F11000C143F2
:102210008C4242D82518002D3FDD786885423CD895
:102220002448143001460C6801E020460C466168E1
:10223000A94202D221680029F7D13968B8468C42F8
:102240002BD006682168016060680836401B1028A2
:102250000ED96719780704D0DC2217A124A0FEF755
:102260002BF86068401B786038466560FFF760FDBA
:102270006268D8F804004146801AC8F80400D8F80B
:102280000830984200D2886042F000406060002030
:102290002060C868401CC8F80C0001F0EBF870071B
:1022A00005D04FF48E7204A111A0FEF705F8304658
:1022B000BDE8F0817C0000202E2E5C2E2E5C4D6946
:1022C00064646C6577617265735C467265655254CF
:1022D0004F535C706F727461626C655C4D656D4DDF
:1022E000616E675C686561705F342E63000000009A
:1022F0004572726F723A2025732C2025640D0A00F6
:1023000010B5031F4FF080741C601B1F21F00101EA
:102310001960191F024B0B60143940380A6010BD58
:10232000E12000081CB500F0DFF80E490220CDE9DD
:102330000001002380220CA10D4800F04DFE094948
:102340000320091DCDE900010023802209A10B48CB
:1023500000F042FE002000F04DFABDE81C4000F005
:1023600005B90000080000207461736B31000000A3
:10237000D92300087461736B32000000F923000850
:1023800070B590B0064628216846FEF7AAF81421D9
:102390000AA8FEF7A6F80120009000040024CDE969
:1023A000010402250996CDE907506846FEF73AFD7B
:1023B00000B1FEE70F20CDE90A054FF48060CDE9BA
:1023C0000C4002210AA80E94FEF740FC002800D021
:1023D000FEE710B070BD0000064D4FF480744FF45E
:1023E000FA7621462846FEF7A8FB304600F0C4F9ED
:1023F000F7E700000008014008B500F089FE054C31
:10240000009004212046FEF798FB0A21684600F060
:1024100011FEF6E7001401400B4910B5094AC1E965
:10242000002000208860C860086188610C20486135
:102430000846FFF73DF8BDE8104001220349024875
:10244000FFF7AEB8003801406C01002014000020F6
:10245000D0E9013201699A60D0E901235A604A68E3
:10246000824201D182684A60002202610868401EEF
:1024700008600868704700000148806870470000E5
:102480003C00002000F108014FF0FF32C0E90112CA
:10249000C160016100210160704700210161704746
:1024A00030B50B685A1C02D000F1080202E0026944
:1024B00004E02246546825689D42FAD953684B606F
:1024C00099608A60516008610168491C016030BDF3
:1024D00042684A6093688B609368596091600861B4
:1024E0000168491C01607047502080F31188BFF3D8
:1024F0004F8FBFF36F8F09494868401C486001281F
:102500000AD10748006810F0FF0F05D04FF4BB72E6
:1025100004A112A0FDF7D0BE704700009800002073
:1025200004ED00E02E2E5C2E2E5C4D6964646C651B
:1025300077617265735C4672656552544F535C7087
:102540006F727461626C655C525644535C41524DCB
:102550005F434D335C706F72742E63004572726F0F
:10256000723A2025732C2025640D0A0010B5084C02
:10257000606828B940F27D1206A114A0FDF79CFE08
:102580006068401E606001D180F3118810BD0000BA
:10259000980000202E2E5C2E2E5C4D6964646C65C4
:1025A00077617265735C4672656552544F535C7017
:1025B0006F727461626C655C525644535C41524D5B
:1025C0005F434D335C706F72742E63004572726F9F
:1025D000723A2025732C2025640D0A0070B500285E
:1025E0002CD0A0F108046068002805DB40F22F120F
:1025F00013A121A0FDF760FE206828B14FF4987266
:102600000FA11DA0FDF758FE6068002816DA2168AA
:10261000002913D120F00040606000F031FA1A4D1B
:1026200060686968084468602046FFF781FB286994
:10263000401C2861BDE8704000F01CBF70BD000068
:102640002E2E5C2E2E5C4D6964646C65776172651C
:10265000735C4672656552544F535C706F7274615F
:10266000626C655C4D656D4D616E675C686561703F
:102670005F342E63000000004572726F723A2025AD
:10268000732C2025640D0A007C0000204FF0E02010
:1026900000210161816105494FF4FA520968B1FBDB
:1026A000F2F1491E416103210161704700000020E1
:1026B00070B50E4605004FF0000405D140F6D82253
:1026C0000EA117A0FDF7F8FD002E15D01848002226
:1026D00000EBC2014B68AB4202D100EBC20407E041
:1026E0001CB950F8323003B90C46521C082AEFD3FB
:1026F000002C01D0C4E9006570BD00002E2E5C2EB8
:102700002E5C4D6964646C6577617265735C4672BA
:10271000656552544F535C71756575652E63000095
:102720004572726F723A2025732C2025640D0A00C1
:102730004805002070B515460E460446FFF7D4FE46
:1027400094F944100020491C01D184F8440094F904
:102750004510491C01D184F84500FFF707FFA06B25
:1027600028B92A46314604F1240000F0F5F8204645
:10277000BDE87040FFF7FEBC10B5040012D00E4853
:10278000406B28B140F21D520CA115A0FDF794FD3D
:1027900000F076F900212046FFF7D2F800F06AFE3B
:1027A000002807D112494FF080500860BFF34F8FC7
:1027B000BFF36F8F10BD00003C0000202E2E5C2E5A
:1027C0002E5C4D6964646C6577617265735C4672FA
:1027D000656552544F535C7461736B732E630000D4
:1027E0004572726F723A2025732C2025640D0A0001
:1027F00004ED00E070B50546FFF776FE254C05B9FF
:102800002568281DFFF724FE58B9E86A224A00EB24
:10281000800152F8211021B90121814020698843AB
:102820002061A86A18B105F11800FFF711FE606A6F
:10283000401C60622068854207D1291D1748FFF7B8
:1028400047FE6068401C606004E0A068401EA06015
:10285000FFF714FCFFF78AFE2068854202D0284665
:10286000FFF79FF96069002812D0206885420FD1D8
:10287000606B28B140F2AF4209A112A0FDF71CFD28
:1028800014494FF080500860BFF34F8FBFF36F8F34
:1028900070BD00003C0000206402002020050020E4
:1028A0002E2E5C2E2E5C4D6964646C6577617265BA
:1028B000735C4672656552544F535C7461736B73FD
:1028C0002E6300004572726F723A2025732C20250A
:1028D000640D0A0004ED00E002490A6A0260C9685A
:1028E000416070473C00002001490120C8617047E9
:1028F0003C00002070B50D46040005D140F61142A1
:1029000007A110A0FDF7D8FC124801682046183135
:10291000FFF7C6FD2846BDE870400121FFF710B85B
:102920002E2E5C2E2E5C4D6964646C657761726539
:10293000735C4672656552544F535C7461736B737C
:102940002E6300004572726F723A2025732C202589
:10295000640D0A003C00002070B515460E460400C8
:1029600005D140F6474210A118A0FDF7A5FC1B4871
:1029700061680268D1618A6803681A6202688B68BC
:1029800018325A60026818328A60006884622068CF
:10299000401C20600DB14FF0FF3629463046BDE89F
:1029A0007040FEF7CDBF00002E2E5C2E2E5C4D69D0
:1029B00064646C6577617265735C467265655254D8
:1029C0004F535C7461736B732E6300004572726FBA
:1029D000723A2025732C2025640D0A003C0000204B
:1029E0007CB516480025CDE900502B46802214A165
:1029F000154800F0F1FA114C2C3C012803D100F0ED
:102A0000E9FD012802D0401C10D015E0502080F3D1
:102A10001188BFF34F8FBFF36F8F4FF0FF30A0626D
:102A200001206061E56000F079F805E040F61502EC
:102A300006A10FA0FDF740FC206B7CBD68000020C4
:102A400049444C4500000000FD1B00082E2E5C2E62
:102A50002E5C4D6964646C6577617265735C467267
:102A6000656552544F535C7461736B732E63000041
:102A70004572726F723A2025732C2025640D0A006E
:102A80000248416B491C4163704700003C00002034
:102A900070B5134C606B10B10120E06170BD002077
:102AA000E06120690F4EB0FA80F0C0F11F0000EB2A
:102AB000800556F8250028B940F6F9320AA113A07E
:102AC000FDF7FAFB06EB850000F108024168496852
:102AD0004160914201D149684160C868206070BD81
:102AE0003C000020640200202E2E5C2E2E5C4D69DE
:102AF00064646C6577617265735C46726565525497
:102B00004F535C7461736B732E6300004572726F78
:102B1000723A2025732C2025640D0A007CB5294DBE
:102B200028780190FF20287028788DF800009DF803
:102B300000009DF8001000F0F000884205D04FF42E
:102B4000917221A12EA0FDF7B7FB9DF80000304C3B
:102B500000F0500020700720A06005E09DF80010F4
:102B600049008DF80010401E9DF800100906F5D4AC
:102B7000A06003280ED04FF49B7213A120A0FDF794
:102B80009BFBA068032805D040F23F120EA11CA0B9
:102B9000FDF792FB207A000200F4E060A06001984B
:102BA00028701C48016841F470010160016841F01F
:102BB00070410160FFF76AFD00206060FDF720FBB7
:102BC00000207CBD00E400E02E2E5C2E2E5C4D69C2
:102BD00064646C6577617265735C467265655254B6
:102BE0004F535C706F727461626C655C52564453F3
:102BF0005C41524D5F434D335C706F72742E6300C5
:102C00004572726F723A2025732C2025640D0A00DC
:102C10009800002020ED00E010B5502080F31188CE
:102C2000BFF34F8FBFF36F8F00F078FA18B10449EC
:102C30004FF080500860002080F3118810BD000024
:102C400004ED00E02DE9F04117460E4605004FF077
:102C500000041FD0601EB0FBF5F0B0421AD305FB94
:102C600006F010F1550F15D85430FFF7BFFA0400E5
:102C700016D004F154005EB12060C4E90F5620461E
:102C8000012100F02BF884F850700021A16407E0C6
:102C90002460F2E74FF4F27203A10CA0FDF70CFBE5
:102CA0002046BDE8F08100002E2E5C2E2E5C4D6982
:102CB00064646C6577617265735C467265655254D5
:102CC0004F535C71756575652E6300004572726FB8
:102CD000723A2025732C2025640D0A002DE9F0415D
:102CE0000F4604004FF001062DD0E06B002830D0D5
:102CF000B51EB5FBF0F1206C81422AD3FFF7F4FB3F
:102D0000D4E90F20216802FB0011A1600021A1631A
:102D1000216861600A46D4E90F01401E00FB0121D1
:102D20002046E16000F8445F457004F11000002F78
:102D300019D0FFF7A7FB04F12400FFF7A3FB00BFA6
:102D4000FFF714FC0CE04FF497720FA117A0FDF7EA
:102D5000B3FA002640F263120BA114A0FDF7ACFAFF
:102D60003046BDE8F08121690029E9D000F0FCFA85
:102D70000028E5D011494FF080500860BFF34F8F15
:102D8000BFF36F8FDCE700002E2E5C2E2E5C4D69AA
:102D900064646C6577617265735C467265655254F4
:102DA0004F535C71756575652E6300004572726FD7
:102DB000723A2025732C2025640D0A0004ED00E0F2
:102DC0002DE9F747002683B08A46040005D140F27A
:102DD0006B5245A14DA0FDF76FFABAF1000F07D174
:102DE000206C28B140F26F523FA148A0FDF764FA71
:102DF00000F080F938B9059828B140F274523AA130
:102E000042A0FDF759FADFF814814FF000094FF0A6
:102E1000805700BFFFF768FBA56BC5B15146204640
:102E2000FEF776FE6D1EA563206950B104F1100017
:102E300000F09AFA28B1C8F80070BFF34F8FBFF3C3
:102E40006F8FFFF793FB012006B0BDE8F087059870
:102E500008B11EB106E0FFF789FB27E06846FFF7DF
:102E60003BFD0126FFF782FBFFF70AFEFFF73CFB65
:102E700094F94400401C01D184F8449094F9450031
:102E8000401C01D184F84590FFF770FB05A9684606
:102E900000F046F8002820460AD0FFF76BF900F052
:102EA000E9FA2046FEF786FF0028B3D00020CBE7E2
:102EB000FEF780FF90B104F124000599FFF71AFD99
:102EC0002046FFF757F900F0D5FA0028A2D1C8F83C
:102ED0000070BFF34F8FBFF36F8F9BE72046FFF764
:102EE00049F900F0C7FA95E72E2E5C2E2E5C4D694D
:102EF00064646C6577617265735C46726565525493
:102F00004F535C71756575652E6300004572726F75
:102F1000723A2025732C2025640D0A0004ED00E090
:102F20002DE9F0410C46050005D140F6F2421CA106
:102F300024A0FDF7C1F92CB940F6F34218A121A055
:102F4000FDF7BAF9FFF7D0FA2249CB686F68086835
:102F5000DA1B002690F8590018B1086880F859600B
:102F600018E02068B0F1FF3F09D0D5F800C0096A29
:102F70008C4506D09F4204D8012526600BE0002531
:102F800009E0904205D9801A20602846FFF7A4FC8A
:102F9000F5E726600125FFF7E9FA2846BDE8F0814C
:102FA0002E2E5C2E2E5C4D6964646C6577617265B3
:102FB000735C4672656552544F535C7461736B73F6
:102FC0002E6300004572726F723A2025732C202503
:102FD000640D0A003C0000202DE9FF5F8346DDE917
:102FE0000E87994616468A469000FFF7FFF80500BF
:102FF0001DD05C20FFF7FAF8040015D05C21FDF726
:1030000070FA25630021CDE90241CDE900874B46E6
:10301000324651465846FEF721FE2046FEF7D8FCC0
:10302000012004B0BDE8F09F2846FFF7D7FA4FF023
:10303000FF30F6E72DE9F0410E4604004FF00005A1
:1030400005D140F2C4421CA124A0FDF735F92EB9E8
:1030500040F2C54218A121A0FDF72EF9234F786B4D
:1030600028B140F2C64214A11CA0FDF725F9FFF7D4
:1030700007FDFA6820688119904204D988420BD96B
:10308000914202D808E08842FAD9881A21600125C5
:103090000021FEF755FC00E0216000F0EBF938B9A3
:1030A00013494FF080500860BFF34F8FBFF36F8F0D
:1030B0002846BDE8F08100002E2E5C2E2E5C4D6966
:1030C00064646C6577617265735C467265655254C1
:1030D0004F535C7461736B732E6300004572726FA3
:1030E000723A2025732C2025640D0A003C00002034
:1030F00004ED00E00548416919B1406B18B10020AA
:103100007047012070470220704700003C000020FB
:103110000148C068704700003C0000202DE9F041E4
:10312000494C0026606B28B1A069401CA061304664
:10313000BDE8F081E5686D1CE56011D1A06B006809
:1031400028B140F6BA2241A149A0FDF7B5F8A06B1D
:10315000E16BA163E063206A401C2062FEF78EFFF2
:10316000A16A47488D420FD34FF0000EA16B09684A
:1031700039B1A16BC968C9684A68954212D2A26286
:1031800002E04FF0FF31A1622168C96A01EB8101C1
:1031900050F82100012800D90126E0690028C6D096
:1031A0000126C4E7D1E902724B69BA60D1E902276E
:1031B0007A605F680A1D974201D1CF685F60C1F8ED
:1031C00014E01F687F1E1F60D1F828C0BCF1000FFB
:1031D00015D0D1E907379F60D1E907377B60DCF86C
:1031E000047001F118039F4202D10B6ACCF804303D
:1031F000C1F828E0DCF800305B1ECCF80030CB6A68
:103200000127D4F810C09F4047EA0C07276103EB61
:10321000830300EB83035B688B609F68CF609F68CC
:103220007A609A60CA6A02EB820200EB82034B6109
:1032300050F822305B1C40F82230C96A2268D26AFA
:10324000914293D9012691E73C0000202E2E5C2E5E
:103250002E5C4D6964646C6577617265735C46725F
:10326000656552544F535C7461736B732E63000039
:103270004572726F723A2025732C2025640D0A0066
:103280006402002070B504004FF000064BD0274DBB
:103290002868844205D041F24B0225A12DA0FDF7FC
:1032A0000BF8206D28B941F24C0221A129A0FDF7AD
:1032B00003F8206D401E2065E26CE16A914232D035
:1032C00088BB201DFFF7C4F8012130B994F82C0009
:1032D0002A6901FA00F082432A61E06CE062C0F1E1
:1032E0002000A061E06A2A698140114329611D49DB
:1032F00000EB800001EB80004068A0608268E26023
:103300008368221D5A608260E06A00EB800001EB56
:1033100080006061E06A00EB800051F82020521CC0
:1033200041F820200126304670BD00003C000020FE
:103330002E2E5C2E2E5C4D6964646C65776172651F
:10334000735C4672656552544F535C7461736B7362
:103350002E6300004572726F723A2025732C20256F
:10336000640D0A006402002070B5C068C4682CB9FE
:1033700040F677422FA138A0FCF79EFFD4E9072042
:10338000A16A9060D4E9070250604A6804F118000D
:10339000824201D1226A4A600023A3620A68521E57
:1033A0000A6031494A6B01259AB1304B5A68E26193
:1033B00096682662966870609060A3621868401CE8
:1033C0001860E06A0A68D26A904231D90120CD6162
:1033D00070BDD4E902626069B260D4E9022672600D
:1033E0004668221D964201D1E66846606361036823
:1033F0005B1E0360E06A0E6905FA00F333430B615C
:103400001B4B00EB800003EB80004068A0608668E7
:10341000E660866872608260E06A00EB800003EB21
:103420008002626153F82020521C43F82020C8E734
:10343000002070BD2E2E5C2E2E5C4D6964646C6580
:1034400077617265735C4672656552544F535C7464
:1034500061736B732E6300004572726F723A2025A0
:10346000732C2025640D0A003C0000200C05002070
:10347000640200202DE9F041454D00242746686B89
:1034800028B940F6880243A14BA0FCF715FFFFF7CF
:103490002BF8686B401E6863686B002872D1A868BF
:1034A000494B00264FF00108F0BB6BE0D868C468B8
:1034B000D4E90721A06A9160D4E9071251604268FB
:1034C00004F118018A4201D1216A4160A6620168B3
:1034D000491E0160D4E9022160699160D4E90212B9
:1034E00051604268211D8A4201D1E26842606661F2
:1034F0000268521E0260E26AD5F810C008FA02F0B3
:1035000040EA0C00286102EB8200304A02EB8000A6
:103510004068A060D0F808C0C4F80CC0D0F808C05B
:10352000CCF80410816000E011E0E06A00EB80005C
:1035300002EB8001616152F82010491C42F8201012
:10354000E06A2968C96A884201D3C5F81C801868F6
:103550000028ABD10CB1FEF791FDAC6944B100BFBE
:10356000FFF7DCFD08B1C5F81C80641EF8D1AE6120
:10357000E86938B11649012738070860BFF34F8F53
:10358000BFF36F8FFEF7F2FF3846BDE8F081000011
:103590003C0000202E2E5C2E2E5C4D6964646C6510
:1035A00077617265735C4672656552544F535C7403
:1035B00061736B732E6300004572726F723A20253F
:1035C000732C2025640D0A000C05002064020020E5
:1035D00004ED00E01CB50024FEF772FA0C48006808
:1035E00068B10B491F20091DCDE9000100234FF4EC
:1035F000807208A10948FFF7EFFC040005D140F2F2
:10360000191207A10FA0FCF757FE20461CBD0000B1
:1036100028000020546D7220537663005121000869
:103620002E2E5C2E2E5C4D6964646C65776172652C
:10363000735C4672656552544F535C74696D657274
:10364000732E63004572726F723A2025732C202509
:10365000640D0A00000000000000000001020304E5
:103660000607080900000000010203048C36000868
:1036700000000020A40000006C01000830370008A2
:10368000A400002044330000880100080024F40056
:10369000000000000000000000000000000000002A
:1036A0000000000000000000010000001000000009
:1036B000000000000000000000000000000000000A
:1036C00000000000000000000000000000000000FA
:1036D00000000000000000000000000000000000EA
:1036E00000000000000000000000000000000000DA
:1036F00000000000000000001F00000000000000AB
:1037000000000000000000000000000000000000B9
:1037100000000000000000000000000000000000A9
:103720000000000000000000AAAAAAAA00000000F1
:0400000508000131BD
:00000001FF
